{
	"data": {
		"bytecode": {
			"linkReferences": {},
			"object": "6080604052600080546001600160a01b0319908116734e61743278ed45975e3038bedcaa537816b66b5b17909155600180548216735819b6af194a78511c79c85ea68d2377a7e9335f17815560028054831673c6a2ad8cc6e4a7e08fc37cc5954be07d499e76541790556003805490921673d83f1b074d81869eff2c46c530d7308ffec180361790915560055534801561009857600080fd5b506116a7806100a86000396000f3fe6080604052600436106100ab5760003560e01c80638da5cb5b116100645780638da5cb5b1461015f5780639ac1ef3814610174578063a5cfb6a314610187578063eef442971461019c578063f02ccfa7146101b1578063f0c55b58146101d1576100b2565b8063160ce6e9146100b7578063249502d7146100e257806331cf6c62146100f75780634136195f146101175780635b0f0e351461012c57806376e6b7d01461013f576100b2565b366100b257005b600080fd5b3480156100c357600080fd5b506100cc6101f1565b6040516100d9919061142e565b60405180910390f35b3480156100ee57600080fd5b506100cc610200565b61010a610105366004611166565b61020f565b6040516100d99190611529565b34801561012357600080fd5b506100cc61024f565b61010a61013a3660046111a1565b61025e565b34801561014b57600080fd5b5061010a61015a366004611166565b6102b7565b34801561016b57600080fd5b506100cc6106a0565b61010a6101823660046111ed565b6106af565b61019a610195366004611216565b6108c9565b005b3480156101a857600080fd5b506100cc610c49565b3480156101bd57600080fd5b5061010a6101cc3660046111ed565b610c58565b3480156101dd57600080fd5b5061010a6101ec366004611166565b610e31565b6003546001600160a01b031681565b6001546001600160a01b031681565b60008161021e57506000610248565b6001600160a01b03841661023d576102368383610c58565b9050610248565b6102368484846102b7565b9392505050565b6000546001600160a01b031681565b60008261026d575060006102af565b600380546001600160a01b0319166001600160a01b038481169190911790915585166102a45761029d84846106af565b90506102af565b61029d858585610e31565b949350505050565b6000806102c64261012c6115bc565b604080516002808252606082018352929350600092909160208301908036833750506040516323b872dd60e01b8152919250506001600160a01b038716906323b872dd9061031c90339030908990600401611442565b602060405180830381600087803b15801561033657600080fd5b505af115801561034a573d6000803e3d6000fd5b505050506040513d601f19601f8201168201806040525081019061036e91906113b3565b5060005460405163095ea7b360e01b81526001600160a01b038881169263095ea7b3926103a5929091169060001990600401611466565b602060405180830381600087803b1580156103bf57600080fd5b505af11580156103d3573d6000803e3d6000fd5b505050506040513d601f19601f820116820180604052508101906103f791906113b3565b5060606001600160a01b03861661050a57868260008151811061042a57634e487b7160e01b600052603260045260246000fd5b6001600160a01b039283166020918202929092010152600180548451921691849190811061046857634e487b7160e01b600052603260045260246000fd5b6001600160a01b039283166020918202929092010152600080546040516318cbafe560e01b81529216916318cbafe5916104ad91899190879033908a90600401611532565b600060405180830381600087803b1580156104c757600080fd5b505af11580156104db573d6000803e3d6000fd5b505050506040513d6000823e601f3d908101601f191682016040526105039190810190611323565b905061060c565b868260008151811061052c57634e487b7160e01b600052603260045260246000fd5b60200260200101906001600160a01b031690816001600160a01b031681525050858260018151811061056e57634e487b7160e01b600052603260045260246000fd5b6001600160a01b039283166020918202929092010152600080546040516338ed173960e01b81529216916338ed1739916105b391899190879033908a90600401611532565b600060405180830381600087803b1580156105cd57600080fd5b505af11580156105e1573d6000803e3d6000fd5b505050506040513d6000823e601f3d908101601f191682016040526106099190810190611323565b90505b7f56c1cc0ee18fd18b7913508d06a3a97bb1f19264a63fcbb16e884eb8c083b2ce8160018151811061064e57634e487b7160e01b600052603260045260246000fd5b60200260200101516040516106639190611529565b60405180910390a18060018151811061068c57634e487b7160e01b600052603260045260246000fd5b602002602001015193505050509392505050565b6004546001600160a01b031681565b600034156106bb573491505b604080516000815260208101918290526002546306cae84560e21b909252906001906001600160a01b0316631b2ba114620f4240866106ff898688602481016114c4565b6000604051808303818589803b15801561071857600080fd5b5088f115801561072c573d6000803e3d6000fd5b505060035460405163e416118160e01b8152600095506001600160a01b03909116935063e41611819250610767915084908990600401611466565b60206040518083038186803b15801561077f57600080fd5b505afa158015610793573d6000803e3d6000fd5b505050506040513d601f19601f820116820180604052508101906107b791906113d3565b60405163095ea7b360e01b81529091506001600160a01b0387169063095ea7b3906107ea90309060001990600401611466565b602060405180830381600087803b15801561080457600080fd5b505af1158015610818573d6000803e3d6000fd5b505050506040513d601f19601f8201168201806040525081019061083c91906113b3565b506040516323b872dd60e01b81526001600160a01b038716906323b872dd9061086d90309033908690600401611442565b602060405180830381600087803b15801561088757600080fd5b505af115801561089b573d6000803e3d6000fd5b505050506040513d601f19601f820116820180604052508101906108bf91906113b3565b5095945050505050565b805160008281836108ea57634e487b7160e01b600052603260045260246000fd5b602002602001015160400151905060008360008151811061091b57634e487b7160e01b600052603260045260246000fd5b602002602001015160600151905060005b610937600185611613565b811015610b2b5760006109cd86838151811061096357634e487b7160e01b600052603260045260246000fd5b60200260200101516000015187848151811061098f57634e487b7160e01b600052603260045260246000fd5b602002602001015160200151868986815181106109bc57634e487b7160e01b600052603260045260246000fd5b60200260200101516080015161025e565b6109d790826115bc565b9050610a3a8683815181106109fc57634e487b7160e01b600052603260045260246000fd5b602002602001015160000151878481518110610a2857634e487b7160e01b600052603260045260246000fd5b6020026020010151602001518561020f565b610a4490826115bc565b905085610a528360016115bc565b81518110610a7057634e487b7160e01b600052603260045260246000fd5b60200260200101516060015186836001610a8a91906115bc565b81518110610aa857634e487b7160e01b600052603260045260246000fd5b602002602001015160400151610abe91906115bc565b86610aca8460016115bc565b81518110610ae857634e487b7160e01b600052603260045260246000fd5b60200260200101516040015182610aff91906115f4565b610b0991906115d4565b9350610b158482611613565b9250508080610b239061162a565b91505061092c565b50610bca84610b3b600186611613565b81518110610b5957634e487b7160e01b600052603260045260246000fd5b60200260200101516000015185600186610b739190611613565b81518110610b9157634e487b7160e01b600052603260045260246000fd5b6020026020010151602001518487600188610bac9190611613565b815181106109bc57634e487b7160e01b600052603260045260246000fd5b50610c4284610bda600186611613565b81518110610bf857634e487b7160e01b600052603260045260246000fd5b60200260200101516000015185600186610c129190611613565b81518110610c3057634e487b7160e01b600052603260045260246000fd5b6020026020010151602001518361020f565b5050505050565b6002546001600160a01b031681565b600080610c674261012c6115bc565b6040805160028082526060820183529293506000929091602083019080368337505060015482519293506001600160a01b031691839150600090610cbb57634e487b7160e01b600052603260045260246000fd5b60200260200101906001600160a01b031690816001600160a01b0316815250508481600181518110610cfd57634e487b7160e01b600052603260045260246000fd5b6001600160a01b03928316602091820292909201015260008054604051637ff36ab560e01b81526060939190911691637ff36ab5918891610d4691879033908a906004016114f4565b6000604051808303818588803b158015610d5f57600080fd5b505af1158015610d73573d6000803e3d6000fd5b50505050506040513d6000823e601f3d908101601f19168201604052610d9c9190810190611323565b90507f56c1cc0ee18fd18b7913508d06a3a97bb1f19264a63fcbb16e884eb8c083b2ce81600181518110610de057634e487b7160e01b600052603260045260246000fd5b6020026020010151604051610df59190611529565b60405180910390a180600181518110610e1e57634e487b7160e01b600052603260045260246000fd5b6020026020010151935050505092915050565b60408051600080825260208201928390526323b872dd60e01b9092526001600160a01b0385166323b872dd610e6b33308760248701611442565b602060405180830381600087803b158015610e8557600080fd5b505af1158015610e99573d6000803e3d6000fd5b505050506040513d601f19601f82011682018060405250810190610ebd91906113b3565b5060025460405163095ea7b360e01b81526001600160a01b038781169263095ea7b392610ef4929091169060001990600401611466565b602060405180830381600087803b158015610f0e57600080fd5b505af1158015610f22573d6000803e3d6000fd5b505050506040513d601f19601f82011682018060405250810190610f4691906113b3565b506002546040516352f28c1760e01b81526001916001600160a01b0316906352f28c1790610f8090899088908a908790899060040161147f565b600060405180830381600087803b158015610f9a57600080fd5b505af1158015610fae573d6000803e3d6000fd5b505060035460405163e416118160e01b8152600093506001600160a01b03909116915063e416118190610fe7908a908990600401611466565b60206040518083038186803b158015610fff57600080fd5b505afa158015611013573d6000803e3d6000fd5b505050506040513d601f19601f8201168201806040525081019061103791906113d3565b60405163095ea7b360e01b81529091506001600160a01b0387169063095ea7b39061106a90309060001990600401611466565b602060405180830381600087803b15801561108457600080fd5b505af1158015611098573d6000803e3d6000fd5b505050506040513d601f19601f820116820180604052508101906110bc91906113b3565b506040516323b872dd60e01b81526001600160a01b038716906323b872dd906110ed90309033908690600401611442565b602060405180830381600087803b15801561110757600080fd5b505af115801561111b573d6000803e3d6000fd5b505050506040513d601f19601f8201168201806040525081019061113f91906113b3565b509695505050505050565b80356001600160a01b038116811461116157600080fd5b919050565b60008060006060848603121561117a578283fd5b6111838461114a565b92506111916020850161114a565b9150604084013590509250925092565b600080600080608085870312156111b6578081fd5b6111bf8561114a565b93506111cd6020860161114a565b9250604085013591506111e26060860161114a565b905092959194509250565b600080604083850312156111ff578182fd5b6112088361114a565b946020939093013593505050565b60006020808385031215611228578182fd5b823567ffffffffffffffff8082111561123f578384fd5b818501915085601f830112611252578384fd5b813561126561126082611598565b61156e565b8181528481019084860160a0808502870188018b1015611283578889fd5b8896505b848710156113145780828c03121561129d578889fd5b6040805182810181811089821117156112b8576112b861165b565b82526112c38461114a565b81526112d08a850161114a565b8a8201528184013582820152606091508184013582820152608091506112f782850161114a565b918101919091528452600196909601959287019290810190611287565b50909998505050505050505050565b60006020808385031215611335578182fd5b825167ffffffffffffffff81111561134b578283fd5b8301601f8101851361135b578283fd5b805161136961126082611598565b8181528381019083850185840285018601891015611385578687fd5b8694505b838510156113a7578051835260019490940193918501918501611389565b50979650505050505050565b6000602082840312156113c4578081fd5b81518015158114610248578182fd5b6000602082840312156113e4578081fd5b5051919050565b6000815180845260208085019450808401835b838110156114235781516001600160a01b0316875295820195908201906001016113fe565b509495945050505050565b6001600160a01b0391909116815260200190565b6001600160a01b039384168152919092166020820152604081019190915260600190565b6001600160a01b03929092168252602082015260400190565b6001600160a01b03868116825260208201869052841660408201526060810183905260a0608082018190526000906114b9908301846113eb565b979650505050505050565b600060018060a01b0385168252836020830152606060408301526114eb60608301846113eb565b95945050505050565b60008582526080602083015261150d60808301866113eb565b6001600160a01b03949094166040830152506060015292915050565b90815260200190565b600086825285602083015260a0604083015261155160a08301866113eb565b6001600160a01b0394909416606083015250608001529392505050565b60405181810167ffffffffffffffff811182821017156115905761159061165b565b604052919050565b600067ffffffffffffffff8211156115b2576115b261165b565b5060209081020190565b600082198211156115cf576115cf611645565b500190565b6000826115ef57634e487b7160e01b81526012600452602481fd5b500490565b600081600019048311821515161561160e5761160e611645565b500290565b60008282101561162557611625611645565b500390565b600060001982141561163e5761163e611645565b5060010190565b634e487b7160e01b600052601160045260246000fd5b634e487b7160e01b600052604160045260246000fdfea26469706673582212203cdd172969aedf21b92e7ed0d553dd1ef33b7d707623765fa26c97c10899472964736f6c63430008000033",
			"opcodes": "PUSH1 0x80 PUSH1 0x40 MSTORE PUSH1 0x0 DUP1 SLOAD PUSH1 0x1 PUSH1 0x1 PUSH1 0xA0 SHL SUB NOT SWAP1 DUP2 AND PUSH20 0x4E61743278ED45975E3038BEDCAA537816B66B5B OR SWAP1 SWAP2 SSTORE PUSH1 0x1 DUP1 SLOAD DUP3 AND PUSH20 0x5819B6AF194A78511C79C85EA68D2377A7E9335F OR DUP2 SSTORE PUSH1 0x2 DUP1 SLOAD DUP4 AND PUSH20 0xC6A2AD8CC6E4A7E08FC37CC5954BE07D499E7654 OR SWAP1 SSTORE PUSH1 0x3 DUP1 SLOAD SWAP1 SWAP3 AND PUSH20 0xD83F1B074D81869EFF2C46C530D7308FFEC18036 OR SWAP1 SWAP2 SSTORE PUSH1 0x5 SSTORE CALLVALUE DUP1 ISZERO PUSH2 0x98 JUMPI PUSH1 0x0 DUP1 REVERT JUMPDEST POP PUSH2 0x16A7 DUP1 PUSH2 0xA8 PUSH1 0x0 CODECOPY PUSH1 0x0 RETURN INVALID PUSH1 0x80 PUSH1 0x40 MSTORE PUSH1 0x4 CALLDATASIZE LT PUSH2 0xAB JUMPI PUSH1 0x0 CALLDATALOAD PUSH1 0xE0 SHR DUP1 PUSH4 0x8DA5CB5B GT PUSH2 0x64 JUMPI DUP1 PUSH4 0x8DA5CB5B EQ PUSH2 0x15F JUMPI DUP1 PUSH4 0x9AC1EF38 EQ PUSH2 0x174 JUMPI DUP1 PUSH4 0xA5CFB6A3 EQ PUSH2 0x187 JUMPI DUP1 PUSH4 0xEEF44297 EQ PUSH2 0x19C JUMPI DUP1 PUSH4 0xF02CCFA7 EQ PUSH2 0x1B1 JUMPI DUP1 PUSH4 0xF0C55B58 EQ PUSH2 0x1D1 JUMPI PUSH2 0xB2 JUMP JUMPDEST DUP1 PUSH4 0x160CE6E9 EQ PUSH2 0xB7 JUMPI DUP1 PUSH4 0x249502D7 EQ PUSH2 0xE2 JUMPI DUP1 PUSH4 0x31CF6C62 EQ PUSH2 0xF7 JUMPI DUP1 PUSH4 0x4136195F EQ PUSH2 0x117 JUMPI DUP1 PUSH4 0x5B0F0E35 EQ PUSH2 0x12C JUMPI DUP1 PUSH4 0x76E6B7D0 EQ PUSH2 0x13F JUMPI PUSH2 0xB2 JUMP JUMPDEST CALLDATASIZE PUSH2 0xB2 JUMPI STOP JUMPDEST PUSH1 0x0 DUP1 REVERT JUMPDEST CALLVALUE DUP1 ISZERO PUSH2 0xC3 JUMPI PUSH1 0x0 DUP1 REVERT JUMPDEST POP PUSH2 0xCC PUSH2 0x1F1 JUMP JUMPDEST PUSH1 0x40 MLOAD PUSH2 0xD9 SWAP2 SWAP1 PUSH2 0x142E JUMP JUMPDEST PUSH1 0x40 MLOAD DUP1 SWAP2 SUB SWAP1 RETURN JUMPDEST CALLVALUE DUP1 ISZERO PUSH2 0xEE JUMPI PUSH1 0x0 DUP1 REVERT JUMPDEST POP PUSH2 0xCC PUSH2 0x200 JUMP JUMPDEST PUSH2 0x10A PUSH2 0x105 CALLDATASIZE PUSH1 0x4 PUSH2 0x1166 JUMP JUMPDEST PUSH2 0x20F JUMP JUMPDEST PUSH1 0x40 MLOAD PUSH2 0xD9 SWAP2 SWAP1 PUSH2 0x1529 JUMP JUMPDEST CALLVALUE DUP1 ISZERO PUSH2 0x123 JUMPI PUSH1 0x0 DUP1 REVERT JUMPDEST POP PUSH2 0xCC PUSH2 0x24F JUMP JUMPDEST PUSH2 0x10A PUSH2 0x13A CALLDATASIZE PUSH1 0x4 PUSH2 0x11A1 JUMP JUMPDEST PUSH2 0x25E JUMP JUMPDEST CALLVALUE DUP1 ISZERO PUSH2 0x14B JUMPI PUSH1 0x0 DUP1 REVERT JUMPDEST POP PUSH2 0x10A PUSH2 0x15A CALLDATASIZE PUSH1 0x4 PUSH2 0x1166 JUMP JUMPDEST PUSH2 0x2B7 JUMP JUMPDEST CALLVALUE DUP1 ISZERO PUSH2 0x16B JUMPI PUSH1 0x0 DUP1 REVERT JUMPDEST POP PUSH2 0xCC PUSH2 0x6A0 JUMP JUMPDEST PUSH2 0x10A PUSH2 0x182 CALLDATASIZE PUSH1 0x4 PUSH2 0x11ED JUMP JUMPDEST PUSH2 0x6AF JUMP JUMPDEST PUSH2 0x19A PUSH2 0x195 CALLDATASIZE PUSH1 0x4 PUSH2 0x1216 JUMP JUMPDEST PUSH2 0x8C9 JUMP JUMPDEST STOP JUMPDEST CALLVALUE DUP1 ISZERO PUSH2 0x1A8 JUMPI PUSH1 0x0 DUP1 REVERT JUMPDEST POP PUSH2 0xCC PUSH2 0xC49 JUMP JUMPDEST CALLVALUE DUP1 ISZERO PUSH2 0x1BD JUMPI PUSH1 0x0 DUP1 REVERT JUMPDEST POP PUSH2 0x10A PUSH2 0x1CC CALLDATASIZE PUSH1 0x4 PUSH2 0x11ED JUMP JUMPDEST PUSH2 0xC58 JUMP JUMPDEST CALLVALUE DUP1 ISZERO PUSH2 0x1DD JUMPI PUSH1 0x0 DUP1 REVERT JUMPDEST POP PUSH2 0x10A PUSH2 0x1EC CALLDATASIZE PUSH1 0x4 PUSH2 0x1166 JUMP JUMPDEST PUSH2 0xE31 JUMP JUMPDEST PUSH1 0x3 SLOAD PUSH1 0x1 PUSH1 0x1 PUSH1 0xA0 SHL SUB AND DUP2 JUMP JUMPDEST PUSH1 0x1 SLOAD PUSH1 0x1 PUSH1 0x1 PUSH1 0xA0 SHL SUB AND DUP2 JUMP JUMPDEST PUSH1 0x0 DUP2 PUSH2 0x21E JUMPI POP PUSH1 0x0 PUSH2 0x248 JUMP JUMPDEST PUSH1 0x1 PUSH1 0x1 PUSH1 0xA0 SHL SUB DUP5 AND PUSH2 0x23D JUMPI PUSH2 0x236 DUP4 DUP4 PUSH2 0xC58 JUMP JUMPDEST SWAP1 POP PUSH2 0x248 JUMP JUMPDEST PUSH2 0x236 DUP5 DUP5 DUP5 PUSH2 0x2B7 JUMP JUMPDEST SWAP4 SWAP3 POP POP POP JUMP JUMPDEST PUSH1 0x0 SLOAD PUSH1 0x1 PUSH1 0x1 PUSH1 0xA0 SHL SUB AND DUP2 JUMP JUMPDEST PUSH1 0x0 DUP3 PUSH2 0x26D JUMPI POP PUSH1 0x0 PUSH2 0x2AF JUMP JUMPDEST PUSH1 0x3 DUP1 SLOAD PUSH1 0x1 PUSH1 0x1 PUSH1 0xA0 SHL SUB NOT AND PUSH1 0x1 PUSH1 0x1 PUSH1 0xA0 SHL SUB DUP5 DUP2 AND SWAP2 SWAP1 SWAP2 OR SWAP1 SWAP2 SSTORE DUP6 AND PUSH2 0x2A4 JUMPI PUSH2 0x29D DUP5 DUP5 PUSH2 0x6AF JUMP JUMPDEST SWAP1 POP PUSH2 0x2AF JUMP JUMPDEST PUSH2 0x29D DUP6 DUP6 DUP6 PUSH2 0xE31 JUMP JUMPDEST SWAP5 SWAP4 POP POP POP POP JUMP JUMPDEST PUSH1 0x0 DUP1 PUSH2 0x2C6 TIMESTAMP PUSH2 0x12C PUSH2 0x15BC JUMP JUMPDEST PUSH1 0x40 DUP1 MLOAD PUSH1 0x2 DUP1 DUP3 MSTORE PUSH1 0x60 DUP3 ADD DUP4 MSTORE SWAP3 SWAP4 POP PUSH1 0x0 SWAP3 SWAP1 SWAP2 PUSH1 0x20 DUP4 ADD SWAP1 DUP1 CALLDATASIZE DUP4 CALLDATACOPY POP POP PUSH1 0x40 MLOAD PUSH4 0x23B872DD PUSH1 0xE0 SHL DUP2 MSTORE SWAP2 SWAP3 POP POP PUSH1 0x1 PUSH1 0x1 PUSH1 0xA0 SHL SUB DUP8 AND SWAP1 PUSH4 0x23B872DD SWAP1 PUSH2 0x31C SWAP1 CALLER SWAP1 ADDRESS SWAP1 DUP10 SWAP1 PUSH1 0x4 ADD PUSH2 0x1442 JUMP JUMPDEST PUSH1 0x20 PUSH1 0x40 MLOAD DUP1 DUP4 SUB DUP2 PUSH1 0x0 DUP8 DUP1 EXTCODESIZE ISZERO DUP1 ISZERO PUSH2 0x336 JUMPI PUSH1 0x0 DUP1 REVERT JUMPDEST POP GAS CALL ISZERO DUP1 ISZERO PUSH2 0x34A JUMPI RETURNDATASIZE PUSH1 0x0 DUP1 RETURNDATACOPY RETURNDATASIZE PUSH1 0x0 REVERT JUMPDEST POP POP POP POP PUSH1 0x40 MLOAD RETURNDATASIZE PUSH1 0x1F NOT PUSH1 0x1F DUP3 ADD AND DUP3 ADD DUP1 PUSH1 0x40 MSTORE POP DUP2 ADD SWAP1 PUSH2 0x36E SWAP2 SWAP1 PUSH2 0x13B3 JUMP JUMPDEST POP PUSH1 0x0 SLOAD PUSH1 0x40 MLOAD PUSH4 0x95EA7B3 PUSH1 0xE0 SHL DUP2 MSTORE PUSH1 0x1 PUSH1 0x1 PUSH1 0xA0 SHL SUB DUP9 DUP2 AND SWAP3 PUSH4 0x95EA7B3 SWAP3 PUSH2 0x3A5 SWAP3 SWAP1 SWAP2 AND SWAP1 PUSH1 0x0 NOT SWAP1 PUSH1 0x4 ADD PUSH2 0x1466 JUMP JUMPDEST PUSH1 0x20 PUSH1 0x40 MLOAD DUP1 DUP4 SUB DUP2 PUSH1 0x0 DUP8 DUP1 EXTCODESIZE ISZERO DUP1 ISZERO PUSH2 0x3BF JUMPI PUSH1 0x0 DUP1 REVERT JUMPDEST POP GAS CALL ISZERO DUP1 ISZERO PUSH2 0x3D3 JUMPI RETURNDATASIZE PUSH1 0x0 DUP1 RETURNDATACOPY RETURNDATASIZE PUSH1 0x0 REVERT JUMPDEST POP POP POP POP PUSH1 0x40 MLOAD RETURNDATASIZE PUSH1 0x1F NOT PUSH1 0x1F DUP3 ADD AND DUP3 ADD DUP1 PUSH1 0x40 MSTORE POP DUP2 ADD SWAP1 PUSH2 0x3F7 SWAP2 SWAP1 PUSH2 0x13B3 JUMP JUMPDEST POP PUSH1 0x60 PUSH1 0x1 PUSH1 0x1 PUSH1 0xA0 SHL SUB DUP7 AND PUSH2 0x50A JUMPI DUP7 DUP3 PUSH1 0x0 DUP2 MLOAD DUP2 LT PUSH2 0x42A JUMPI PUSH4 0x4E487B71 PUSH1 0xE0 SHL PUSH1 0x0 MSTORE PUSH1 0x32 PUSH1 0x4 MSTORE PUSH1 0x24 PUSH1 0x0 REVERT JUMPDEST PUSH1 0x1 PUSH1 0x1 PUSH1 0xA0 SHL SUB SWAP3 DUP4 AND PUSH1 0x20 SWAP2 DUP3 MUL SWAP3 SWAP1 SWAP3 ADD ADD MSTORE PUSH1 0x1 DUP1 SLOAD DUP5 MLOAD SWAP3 AND SWAP2 DUP5 SWAP2 SWAP1 DUP2 LT PUSH2 0x468 JUMPI PUSH4 0x4E487B71 PUSH1 0xE0 SHL PUSH1 0x0 MSTORE PUSH1 0x32 PUSH1 0x4 MSTORE PUSH1 0x24 PUSH1 0x0 REVERT JUMPDEST PUSH1 0x1 PUSH1 0x1 PUSH1 0xA0 SHL SUB SWAP3 DUP4 AND PUSH1 0x20 SWAP2 DUP3 MUL SWAP3 SWAP1 SWAP3 ADD ADD MSTORE PUSH1 0x0 DUP1 SLOAD PUSH1 0x40 MLOAD PUSH4 0x18CBAFE5 PUSH1 0xE0 SHL DUP2 MSTORE SWAP3 AND SWAP2 PUSH4 0x18CBAFE5 SWAP2 PUSH2 0x4AD SWAP2 DUP10 SWAP2 SWAP1 DUP8 SWAP1 CALLER SWAP1 DUP11 SWAP1 PUSH1 0x4 ADD PUSH2 0x1532 JUMP JUMPDEST PUSH1 0x0 PUSH1 0x40 MLOAD DUP1 DUP4 SUB DUP2 PUSH1 0x0 DUP8 DUP1 EXTCODESIZE ISZERO DUP1 ISZERO PUSH2 0x4C7 JUMPI PUSH1 0x0 DUP1 REVERT JUMPDEST POP GAS CALL ISZERO DUP1 ISZERO PUSH2 0x4DB JUMPI RETURNDATASIZE PUSH1 0x0 DUP1 RETURNDATACOPY RETURNDATASIZE PUSH1 0x0 REVERT JUMPDEST POP POP POP POP PUSH1 0x40 MLOAD RETURNDATASIZE PUSH1 0x0 DUP3 RETURNDATACOPY PUSH1 0x1F RETURNDATASIZE SWAP1 DUP2 ADD PUSH1 0x1F NOT AND DUP3 ADD PUSH1 0x40 MSTORE PUSH2 0x503 SWAP2 SWAP1 DUP2 ADD SWAP1 PUSH2 0x1323 JUMP JUMPDEST SWAP1 POP PUSH2 0x60C JUMP JUMPDEST DUP7 DUP3 PUSH1 0x0 DUP2 MLOAD DUP2 LT PUSH2 0x52C JUMPI PUSH4 0x4E487B71 PUSH1 0xE0 SHL PUSH1 0x0 MSTORE PUSH1 0x32 PUSH1 0x4 MSTORE PUSH1 0x24 PUSH1 0x0 REVERT JUMPDEST PUSH1 0x20 MUL PUSH1 0x20 ADD ADD SWAP1 PUSH1 0x1 PUSH1 0x1 PUSH1 0xA0 SHL SUB AND SWAP1 DUP2 PUSH1 0x1 PUSH1 0x1 PUSH1 0xA0 SHL SUB AND DUP2 MSTORE POP POP DUP6 DUP3 PUSH1 0x1 DUP2 MLOAD DUP2 LT PUSH2 0x56E JUMPI PUSH4 0x4E487B71 PUSH1 0xE0 SHL PUSH1 0x0 MSTORE PUSH1 0x32 PUSH1 0x4 MSTORE PUSH1 0x24 PUSH1 0x0 REVERT JUMPDEST PUSH1 0x1 PUSH1 0x1 PUSH1 0xA0 SHL SUB SWAP3 DUP4 AND PUSH1 0x20 SWAP2 DUP3 MUL SWAP3 SWAP1 SWAP3 ADD ADD MSTORE PUSH1 0x0 DUP1 SLOAD PUSH1 0x40 MLOAD PUSH4 0x38ED1739 PUSH1 0xE0 SHL DUP2 MSTORE SWAP3 AND SWAP2 PUSH4 0x38ED1739 SWAP2 PUSH2 0x5B3 SWAP2 DUP10 SWAP2 SWAP1 DUP8 SWAP1 CALLER SWAP1 DUP11 SWAP1 PUSH1 0x4 ADD PUSH2 0x1532 JUMP JUMPDEST PUSH1 0x0 PUSH1 0x40 MLOAD DUP1 DUP4 SUB DUP2 PUSH1 0x0 DUP8 DUP1 EXTCODESIZE ISZERO DUP1 ISZERO PUSH2 0x5CD JUMPI PUSH1 0x0 DUP1 REVERT JUMPDEST POP GAS CALL ISZERO DUP1 ISZERO PUSH2 0x5E1 JUMPI RETURNDATASIZE PUSH1 0x0 DUP1 RETURNDATACOPY RETURNDATASIZE PUSH1 0x0 REVERT JUMPDEST POP POP POP POP PUSH1 0x40 MLOAD RETURNDATASIZE PUSH1 0x0 DUP3 RETURNDATACOPY PUSH1 0x1F RETURNDATASIZE SWAP1 DUP2 ADD PUSH1 0x1F NOT AND DUP3 ADD PUSH1 0x40 MSTORE PUSH2 0x609 SWAP2 SWAP1 DUP2 ADD SWAP1 PUSH2 0x1323 JUMP JUMPDEST SWAP1 POP JUMPDEST PUSH32 0x56C1CC0EE18FD18B7913508D06A3A97BB1F19264A63FCBB16E884EB8C083B2CE DUP2 PUSH1 0x1 DUP2 MLOAD DUP2 LT PUSH2 0x64E JUMPI PUSH4 0x4E487B71 PUSH1 0xE0 SHL PUSH1 0x0 MSTORE PUSH1 0x32 PUSH1 0x4 MSTORE PUSH1 0x24 PUSH1 0x0 REVERT JUMPDEST PUSH1 0x20 MUL PUSH1 0x20 ADD ADD MLOAD PUSH1 0x40 MLOAD PUSH2 0x663 SWAP2 SWAP1 PUSH2 0x1529 JUMP JUMPDEST PUSH1 0x40 MLOAD DUP1 SWAP2 SUB SWAP1 LOG1 DUP1 PUSH1 0x1 DUP2 MLOAD DUP2 LT PUSH2 0x68C JUMPI PUSH4 0x4E487B71 PUSH1 0xE0 SHL PUSH1 0x0 MSTORE PUSH1 0x32 PUSH1 0x4 MSTORE PUSH1 0x24 PUSH1 0x0 REVERT JUMPDEST PUSH1 0x20 MUL PUSH1 0x20 ADD ADD MLOAD SWAP4 POP POP POP POP SWAP4 SWAP3 POP POP POP JUMP JUMPDEST PUSH1 0x4 SLOAD PUSH1 0x1 PUSH1 0x1 PUSH1 0xA0 SHL SUB AND DUP2 JUMP JUMPDEST PUSH1 0x0 CALLVALUE ISZERO PUSH2 0x6BB JUMPI CALLVALUE SWAP2 POP JUMPDEST PUSH1 0x40 DUP1 MLOAD PUSH1 0x0 DUP2 MSTORE PUSH1 0x20 DUP2 ADD SWAP2 DUP3 SWAP1 MSTORE PUSH1 0x2 SLOAD PUSH4 0x6CAE845 PUSH1 0xE2 SHL SWAP1 SWAP3 MSTORE SWAP1 PUSH1 0x1 SWAP1 PUSH1 0x1 PUSH1 0x1 PUSH1 0xA0 SHL SUB AND PUSH4 0x1B2BA114 PUSH3 0xF4240 DUP7 PUSH2 0x6FF DUP10 DUP7 DUP9 PUSH1 0x24 DUP2 ADD PUSH2 0x14C4 JUMP JUMPDEST PUSH1 0x0 PUSH1 0x40 MLOAD DUP1 DUP4 SUB DUP2 DUP6 DUP10 DUP1 EXTCODESIZE ISZERO DUP1 ISZERO PUSH2 0x718 JUMPI PUSH1 0x0 DUP1 REVERT JUMPDEST POP DUP9 CALL ISZERO DUP1 ISZERO PUSH2 0x72C JUMPI RETURNDATASIZE PUSH1 0x0 DUP1 RETURNDATACOPY RETURNDATASIZE PUSH1 0x0 REVERT JUMPDEST POP POP PUSH1 0x3 SLOAD PUSH1 0x40 MLOAD PUSH4 0xE4161181 PUSH1 0xE0 SHL DUP2 MSTORE PUSH1 0x0 SWAP6 POP PUSH1 0x1 PUSH1 0x1 PUSH1 0xA0 SHL SUB SWAP1 SWAP2 AND SWAP4 POP PUSH4 0xE4161181 SWAP3 POP PUSH2 0x767 SWAP2 POP DUP5 SWAP1 DUP10 SWAP1 PUSH1 0x4 ADD PUSH2 0x1466 JUMP JUMPDEST PUSH1 0x20 PUSH1 0x40 MLOAD DUP1 DUP4 SUB DUP2 DUP7 DUP1 EXTCODESIZE ISZERO DUP1 ISZERO PUSH2 0x77F JUMPI PUSH1 0x0 DUP1 REVERT JUMPDEST POP GAS STATICCALL ISZERO DUP1 ISZERO PUSH2 0x793 JUMPI RETURNDATASIZE PUSH1 0x0 DUP1 RETURNDATACOPY RETURNDATASIZE PUSH1 0x0 REVERT JUMPDEST POP POP POP POP PUSH1 0x40 MLOAD RETURNDATASIZE PUSH1 0x1F NOT PUSH1 0x1F DUP3 ADD AND DUP3 ADD DUP1 PUSH1 0x40 MSTORE POP DUP2 ADD SWAP1 PUSH2 0x7B7 SWAP2 SWAP1 PUSH2 0x13D3 JUMP JUMPDEST PUSH1 0x40 MLOAD PUSH4 0x95EA7B3 PUSH1 0xE0 SHL DUP2 MSTORE SWAP1 SWAP2 POP PUSH1 0x1 PUSH1 0x1 PUSH1 0xA0 SHL SUB DUP8 AND SWAP1 PUSH4 0x95EA7B3 SWAP1 PUSH2 0x7EA SWAP1 ADDRESS SWAP1 PUSH1 0x0 NOT SWAP1 PUSH1 0x4 ADD PUSH2 0x1466 JUMP JUMPDEST PUSH1 0x20 PUSH1 0x40 MLOAD DUP1 DUP4 SUB DUP2 PUSH1 0x0 DUP8 DUP1 EXTCODESIZE ISZERO DUP1 ISZERO PUSH2 0x804 JUMPI PUSH1 0x0 DUP1 REVERT JUMPDEST POP GAS CALL ISZERO DUP1 ISZERO PUSH2 0x818 JUMPI RETURNDATASIZE PUSH1 0x0 DUP1 RETURNDATACOPY RETURNDATASIZE PUSH1 0x0 REVERT JUMPDEST POP POP POP POP PUSH1 0x40 MLOAD RETURNDATASIZE PUSH1 0x1F NOT PUSH1 0x1F DUP3 ADD AND DUP3 ADD DUP1 PUSH1 0x40 MSTORE POP DUP2 ADD SWAP1 PUSH2 0x83C SWAP2 SWAP1 PUSH2 0x13B3 JUMP JUMPDEST POP PUSH1 0x40 MLOAD PUSH4 0x23B872DD PUSH1 0xE0 SHL DUP2 MSTORE PUSH1 0x1 PUSH1 0x1 PUSH1 0xA0 SHL SUB DUP8 AND SWAP1 PUSH4 0x23B872DD SWAP1 PUSH2 0x86D SWAP1 ADDRESS SWAP1 CALLER SWAP1 DUP7 SWAP1 PUSH1 0x4 ADD PUSH2 0x1442 JUMP JUMPDEST PUSH1 0x20 PUSH1 0x40 MLOAD DUP1 DUP4 SUB DUP2 PUSH1 0x0 DUP8 DUP1 EXTCODESIZE ISZERO DUP1 ISZERO PUSH2 0x887 JUMPI PUSH1 0x0 DUP1 REVERT JUMPDEST POP GAS CALL ISZERO DUP1 ISZERO PUSH2 0x89B JUMPI RETURNDATASIZE PUSH1 0x0 DUP1 RETURNDATACOPY RETURNDATASIZE PUSH1 0x0 REVERT JUMPDEST POP POP POP POP PUSH1 0x40 MLOAD RETURNDATASIZE PUSH1 0x1F NOT PUSH1 0x1F DUP3 ADD AND DUP3 ADD DUP1 PUSH1 0x40 MSTORE POP DUP2 ADD SWAP1 PUSH2 0x8BF SWAP2 SWAP1 PUSH2 0x13B3 JUMP JUMPDEST POP SWAP6 SWAP5 POP POP POP POP POP JUMP JUMPDEST DUP1 MLOAD PUSH1 0x0 DUP3 DUP2 DUP4 PUSH2 0x8EA JUMPI PUSH4 0x4E487B71 PUSH1 0xE0 SHL PUSH1 0x0 MSTORE PUSH1 0x32 PUSH1 0x4 MSTORE PUSH1 0x24 PUSH1 0x0 REVERT JUMPDEST PUSH1 0x20 MUL PUSH1 0x20 ADD ADD MLOAD PUSH1 0x40 ADD MLOAD SWAP1 POP PUSH1 0x0 DUP4 PUSH1 0x0 DUP2 MLOAD DUP2 LT PUSH2 0x91B JUMPI PUSH4 0x4E487B71 PUSH1 0xE0 SHL PUSH1 0x0 MSTORE PUSH1 0x32 PUSH1 0x4 MSTORE PUSH1 0x24 PUSH1 0x0 REVERT JUMPDEST PUSH1 0x20 MUL PUSH1 0x20 ADD ADD MLOAD PUSH1 0x60 ADD MLOAD SWAP1 POP PUSH1 0x0 JUMPDEST PUSH2 0x937 PUSH1 0x1 DUP6 PUSH2 0x1613 JUMP JUMPDEST DUP2 LT ISZERO PUSH2 0xB2B JUMPI PUSH1 0x0 PUSH2 0x9CD DUP7 DUP4 DUP2 MLOAD DUP2 LT PUSH2 0x963 JUMPI PUSH4 0x4E487B71 PUSH1 0xE0 SHL PUSH1 0x0 MSTORE PUSH1 0x32 PUSH1 0x4 MSTORE PUSH1 0x24 PUSH1 0x0 REVERT JUMPDEST PUSH1 0x20 MUL PUSH1 0x20 ADD ADD MLOAD PUSH1 0x0 ADD MLOAD DUP8 DUP5 DUP2 MLOAD DUP2 LT PUSH2 0x98F JUMPI PUSH4 0x4E487B71 PUSH1 0xE0 SHL PUSH1 0x0 MSTORE PUSH1 0x32 PUSH1 0x4 MSTORE PUSH1 0x24 PUSH1 0x0 REVERT JUMPDEST PUSH1 0x20 MUL PUSH1 0x20 ADD ADD MLOAD PUSH1 0x20 ADD MLOAD DUP7 DUP10 DUP7 DUP2 MLOAD DUP2 LT PUSH2 0x9BC JUMPI PUSH4 0x4E487B71 PUSH1 0xE0 SHL PUSH1 0x0 MSTORE PUSH1 0x32 PUSH1 0x4 MSTORE PUSH1 0x24 PUSH1 0x0 REVERT JUMPDEST PUSH1 0x20 MUL PUSH1 0x20 ADD ADD MLOAD PUSH1 0x80 ADD MLOAD PUSH2 0x25E JUMP JUMPDEST PUSH2 0x9D7 SWAP1 DUP3 PUSH2 0x15BC JUMP JUMPDEST SWAP1 POP PUSH2 0xA3A DUP7 DUP4 DUP2 MLOAD DUP2 LT PUSH2 0x9FC JUMPI PUSH4 0x4E487B71 PUSH1 0xE0 SHL PUSH1 0x0 MSTORE PUSH1 0x32 PUSH1 0x4 MSTORE PUSH1 0x24 PUSH1 0x0 REVERT JUMPDEST PUSH1 0x20 MUL PUSH1 0x20 ADD ADD MLOAD PUSH1 0x0 ADD MLOAD DUP8 DUP5 DUP2 MLOAD DUP2 LT PUSH2 0xA28 JUMPI PUSH4 0x4E487B71 PUSH1 0xE0 SHL PUSH1 0x0 MSTORE PUSH1 0x32 PUSH1 0x4 MSTORE PUSH1 0x24 PUSH1 0x0 REVERT JUMPDEST PUSH1 0x20 MUL PUSH1 0x20 ADD ADD MLOAD PUSH1 0x20 ADD MLOAD DUP6 PUSH2 0x20F JUMP JUMPDEST PUSH2 0xA44 SWAP1 DUP3 PUSH2 0x15BC JUMP JUMPDEST SWAP1 POP DUP6 PUSH2 0xA52 DUP4 PUSH1 0x1 PUSH2 0x15BC JUMP JUMPDEST DUP2 MLOAD DUP2 LT PUSH2 0xA70 JUMPI PUSH4 0x4E487B71 PUSH1 0xE0 SHL PUSH1 0x0 MSTORE PUSH1 0x32 PUSH1 0x4 MSTORE PUSH1 0x24 PUSH1 0x0 REVERT JUMPDEST PUSH1 0x20 MUL PUSH1 0x20 ADD ADD MLOAD PUSH1 0x60 ADD MLOAD DUP7 DUP4 PUSH1 0x1 PUSH2 0xA8A SWAP2 SWAP1 PUSH2 0x15BC JUMP JUMPDEST DUP2 MLOAD DUP2 LT PUSH2 0xAA8 JUMPI PUSH4 0x4E487B71 PUSH1 0xE0 SHL PUSH1 0x0 MSTORE PUSH1 0x32 PUSH1 0x4 MSTORE PUSH1 0x24 PUSH1 0x0 REVERT JUMPDEST PUSH1 0x20 MUL PUSH1 0x20 ADD ADD MLOAD PUSH1 0x40 ADD MLOAD PUSH2 0xABE SWAP2 SWAP1 PUSH2 0x15BC JUMP JUMPDEST DUP7 PUSH2 0xACA DUP5 PUSH1 0x1 PUSH2 0x15BC JUMP JUMPDEST DUP2 MLOAD DUP2 LT PUSH2 0xAE8 JUMPI PUSH4 0x4E487B71 PUSH1 0xE0 SHL PUSH1 0x0 MSTORE PUSH1 0x32 PUSH1 0x4 MSTORE PUSH1 0x24 PUSH1 0x0 REVERT JUMPDEST PUSH1 0x20 MUL PUSH1 0x20 ADD ADD MLOAD PUSH1 0x40 ADD MLOAD DUP3 PUSH2 0xAFF SWAP2 SWAP1 PUSH2 0x15F4 JUMP JUMPDEST PUSH2 0xB09 SWAP2 SWAP1 PUSH2 0x15D4 JUMP JUMPDEST SWAP4 POP PUSH2 0xB15 DUP5 DUP3 PUSH2 0x1613 JUMP JUMPDEST SWAP3 POP POP DUP1 DUP1 PUSH2 0xB23 SWAP1 PUSH2 0x162A JUMP JUMPDEST SWAP2 POP POP PUSH2 0x92C JUMP JUMPDEST POP PUSH2 0xBCA DUP5 PUSH2 0xB3B PUSH1 0x1 DUP7 PUSH2 0x1613 JUMP JUMPDEST DUP2 MLOAD DUP2 LT PUSH2 0xB59 JUMPI PUSH4 0x4E487B71 PUSH1 0xE0 SHL PUSH1 0x0 MSTORE PUSH1 0x32 PUSH1 0x4 MSTORE PUSH1 0x24 PUSH1 0x0 REVERT JUMPDEST PUSH1 0x20 MUL PUSH1 0x20 ADD ADD MLOAD PUSH1 0x0 ADD MLOAD DUP6 PUSH1 0x1 DUP7 PUSH2 0xB73 SWAP2 SWAP1 PUSH2 0x1613 JUMP JUMPDEST DUP2 MLOAD DUP2 LT PUSH2 0xB91 JUMPI PUSH4 0x4E487B71 PUSH1 0xE0 SHL PUSH1 0x0 MSTORE PUSH1 0x32 PUSH1 0x4 MSTORE PUSH1 0x24 PUSH1 0x0 REVERT JUMPDEST PUSH1 0x20 MUL PUSH1 0x20 ADD ADD MLOAD PUSH1 0x20 ADD MLOAD DUP5 DUP8 PUSH1 0x1 DUP9 PUSH2 0xBAC SWAP2 SWAP1 PUSH2 0x1613 JUMP JUMPDEST DUP2 MLOAD DUP2 LT PUSH2 0x9BC JUMPI PUSH4 0x4E487B71 PUSH1 0xE0 SHL PUSH1 0x0 MSTORE PUSH1 0x32 PUSH1 0x4 MSTORE PUSH1 0x24 PUSH1 0x0 REVERT JUMPDEST POP PUSH2 0xC42 DUP5 PUSH2 0xBDA PUSH1 0x1 DUP7 PUSH2 0x1613 JUMP JUMPDEST DUP2 MLOAD DUP2 LT PUSH2 0xBF8 JUMPI PUSH4 0x4E487B71 PUSH1 0xE0 SHL PUSH1 0x0 MSTORE PUSH1 0x32 PUSH1 0x4 MSTORE PUSH1 0x24 PUSH1 0x0 REVERT JUMPDEST PUSH1 0x20 MUL PUSH1 0x20 ADD ADD MLOAD PUSH1 0x0 ADD MLOAD DUP6 PUSH1 0x1 DUP7 PUSH2 0xC12 SWAP2 SWAP1 PUSH2 0x1613 JUMP JUMPDEST DUP2 MLOAD DUP2 LT PUSH2 0xC30 JUMPI PUSH4 0x4E487B71 PUSH1 0xE0 SHL PUSH1 0x0 MSTORE PUSH1 0x32 PUSH1 0x4 MSTORE PUSH1 0x24 PUSH1 0x0 REVERT JUMPDEST PUSH1 0x20 MUL PUSH1 0x20 ADD ADD MLOAD PUSH1 0x20 ADD MLOAD DUP4 PUSH2 0x20F JUMP JUMPDEST POP POP POP POP POP JUMP JUMPDEST PUSH1 0x2 SLOAD PUSH1 0x1 PUSH1 0x1 PUSH1 0xA0 SHL SUB AND DUP2 JUMP JUMPDEST PUSH1 0x0 DUP1 PUSH2 0xC67 TIMESTAMP PUSH2 0x12C PUSH2 0x15BC JUMP JUMPDEST PUSH1 0x40 DUP1 MLOAD PUSH1 0x2 DUP1 DUP3 MSTORE PUSH1 0x60 DUP3 ADD DUP4 MSTORE SWAP3 SWAP4 POP PUSH1 0x0 SWAP3 SWAP1 SWAP2 PUSH1 0x20 DUP4 ADD SWAP1 DUP1 CALLDATASIZE DUP4 CALLDATACOPY POP POP PUSH1 0x1 SLOAD DUP3 MLOAD SWAP3 SWAP4 POP PUSH1 0x1 PUSH1 0x1 PUSH1 0xA0 SHL SUB AND SWAP2 DUP4 SWAP2 POP PUSH1 0x0 SWAP1 PUSH2 0xCBB JUMPI PUSH4 0x4E487B71 PUSH1 0xE0 SHL PUSH1 0x0 MSTORE PUSH1 0x32 PUSH1 0x4 MSTORE PUSH1 0x24 PUSH1 0x0 REVERT JUMPDEST PUSH1 0x20 MUL PUSH1 0x20 ADD ADD SWAP1 PUSH1 0x1 PUSH1 0x1 PUSH1 0xA0 SHL SUB AND SWAP1 DUP2 PUSH1 0x1 PUSH1 0x1 PUSH1 0xA0 SHL SUB AND DUP2 MSTORE POP POP DUP5 DUP2 PUSH1 0x1 DUP2 MLOAD DUP2 LT PUSH2 0xCFD JUMPI PUSH4 0x4E487B71 PUSH1 0xE0 SHL PUSH1 0x0 MSTORE PUSH1 0x32 PUSH1 0x4 MSTORE PUSH1 0x24 PUSH1 0x0 REVERT JUMPDEST PUSH1 0x1 PUSH1 0x1 PUSH1 0xA0 SHL SUB SWAP3 DUP4 AND PUSH1 0x20 SWAP2 DUP3 MUL SWAP3 SWAP1 SWAP3 ADD ADD MSTORE PUSH1 0x0 DUP1 SLOAD PUSH1 0x40 MLOAD PUSH4 0x7FF36AB5 PUSH1 0xE0 SHL DUP2 MSTORE PUSH1 0x60 SWAP4 SWAP2 SWAP1 SWAP2 AND SWAP2 PUSH4 0x7FF36AB5 SWAP2 DUP9 SWAP2 PUSH2 0xD46 SWAP2 DUP8 SWAP1 CALLER SWAP1 DUP11 SWAP1 PUSH1 0x4 ADD PUSH2 0x14F4 JUMP JUMPDEST PUSH1 0x0 PUSH1 0x40 MLOAD DUP1 DUP4 SUB DUP2 DUP6 DUP9 DUP1 EXTCODESIZE ISZERO DUP1 ISZERO PUSH2 0xD5F JUMPI PUSH1 0x0 DUP1 REVERT JUMPDEST POP GAS CALL ISZERO DUP1 ISZERO PUSH2 0xD73 JUMPI RETURNDATASIZE PUSH1 0x0 DUP1 RETURNDATACOPY RETURNDATASIZE PUSH1 0x0 REVERT JUMPDEST POP POP POP POP POP PUSH1 0x40 MLOAD RETURNDATASIZE PUSH1 0x0 DUP3 RETURNDATACOPY PUSH1 0x1F RETURNDATASIZE SWAP1 DUP2 ADD PUSH1 0x1F NOT AND DUP3 ADD PUSH1 0x40 MSTORE PUSH2 0xD9C SWAP2 SWAP1 DUP2 ADD SWAP1 PUSH2 0x1323 JUMP JUMPDEST SWAP1 POP PUSH32 0x56C1CC0EE18FD18B7913508D06A3A97BB1F19264A63FCBB16E884EB8C083B2CE DUP2 PUSH1 0x1 DUP2 MLOAD DUP2 LT PUSH2 0xDE0 JUMPI PUSH4 0x4E487B71 PUSH1 0xE0 SHL PUSH1 0x0 MSTORE PUSH1 0x32 PUSH1 0x4 MSTORE PUSH1 0x24 PUSH1 0x0 REVERT JUMPDEST PUSH1 0x20 MUL PUSH1 0x20 ADD ADD MLOAD PUSH1 0x40 MLOAD PUSH2 0xDF5 SWAP2 SWAP1 PUSH2 0x1529 JUMP JUMPDEST PUSH1 0x40 MLOAD DUP1 SWAP2 SUB SWAP1 LOG1 DUP1 PUSH1 0x1 DUP2 MLOAD DUP2 LT PUSH2 0xE1E JUMPI PUSH4 0x4E487B71 PUSH1 0xE0 SHL PUSH1 0x0 MSTORE PUSH1 0x32 PUSH1 0x4 MSTORE PUSH1 0x24 PUSH1 0x0 REVERT JUMPDEST PUSH1 0x20 MUL PUSH1 0x20 ADD ADD MLOAD SWAP4 POP POP POP POP SWAP3 SWAP2 POP POP JUMP JUMPDEST PUSH1 0x40 DUP1 MLOAD PUSH1 0x0 DUP1 DUP3 MSTORE PUSH1 0x20 DUP3 ADD SWAP3 DUP4 SWAP1 MSTORE PUSH4 0x23B872DD PUSH1 0xE0 SHL SWAP1 SWAP3 MSTORE PUSH1 0x1 PUSH1 0x1 PUSH1 0xA0 SHL SUB DUP6 AND PUSH4 0x23B872DD PUSH2 0xE6B CALLER ADDRESS DUP8 PUSH1 0x24 DUP8 ADD PUSH2 0x1442 JUMP JUMPDEST PUSH1 0x20 PUSH1 0x40 MLOAD DUP1 DUP4 SUB DUP2 PUSH1 0x0 DUP8 DUP1 EXTCODESIZE ISZERO DUP1 ISZERO PUSH2 0xE85 JUMPI PUSH1 0x0 DUP1 REVERT JUMPDEST POP GAS CALL ISZERO DUP1 ISZERO PUSH2 0xE99 JUMPI RETURNDATASIZE PUSH1 0x0 DUP1 RETURNDATACOPY RETURNDATASIZE PUSH1 0x0 REVERT JUMPDEST POP POP POP POP PUSH1 0x40 MLOAD RETURNDATASIZE PUSH1 0x1F NOT PUSH1 0x1F DUP3 ADD AND DUP3 ADD DUP1 PUSH1 0x40 MSTORE POP DUP2 ADD SWAP1 PUSH2 0xEBD SWAP2 SWAP1 PUSH2 0x13B3 JUMP JUMPDEST POP PUSH1 0x2 SLOAD PUSH1 0x40 MLOAD PUSH4 0x95EA7B3 PUSH1 0xE0 SHL DUP2 MSTORE PUSH1 0x1 PUSH1 0x1 PUSH1 0xA0 SHL SUB DUP8 DUP2 AND SWAP3 PUSH4 0x95EA7B3 SWAP3 PUSH2 0xEF4 SWAP3 SWAP1 SWAP2 AND SWAP1 PUSH1 0x0 NOT SWAP1 PUSH1 0x4 ADD PUSH2 0x1466 JUMP JUMPDEST PUSH1 0x20 PUSH1 0x40 MLOAD DUP1 DUP4 SUB DUP2 PUSH1 0x0 DUP8 DUP1 EXTCODESIZE ISZERO DUP1 ISZERO PUSH2 0xF0E JUMPI PUSH1 0x0 DUP1 REVERT JUMPDEST POP GAS CALL ISZERO DUP1 ISZERO PUSH2 0xF22 JUMPI RETURNDATASIZE PUSH1 0x0 DUP1 RETURNDATACOPY RETURNDATASIZE PUSH1 0x0 REVERT JUMPDEST POP POP POP POP PUSH1 0x40 MLOAD RETURNDATASIZE PUSH1 0x1F NOT PUSH1 0x1F DUP3 ADD AND DUP3 ADD DUP1 PUSH1 0x40 MSTORE POP DUP2 ADD SWAP1 PUSH2 0xF46 SWAP2 SWAP1 PUSH2 0x13B3 JUMP JUMPDEST POP PUSH1 0x2 SLOAD PUSH1 0x40 MLOAD PUSH4 0x52F28C17 PUSH1 0xE0 SHL DUP2 MSTORE PUSH1 0x1 SWAP2 PUSH1 0x1 PUSH1 0x1 PUSH1 0xA0 SHL SUB AND SWAP1 PUSH4 0x52F28C17 SWAP1 PUSH2 0xF80 SWAP1 DUP10 SWAP1 DUP9 SWAP1 DUP11 SWAP1 DUP8 SWAP1 DUP10 SWAP1 PUSH1 0x4 ADD PUSH2 0x147F JUMP JUMPDEST PUSH1 0x0 PUSH1 0x40 MLOAD DUP1 DUP4 SUB DUP2 PUSH1 0x0 DUP8 DUP1 EXTCODESIZE ISZERO DUP1 ISZERO PUSH2 0xF9A JUMPI PUSH1 0x0 DUP1 REVERT JUMPDEST POP GAS CALL ISZERO DUP1 ISZERO PUSH2 0xFAE JUMPI RETURNDATASIZE PUSH1 0x0 DUP1 RETURNDATACOPY RETURNDATASIZE PUSH1 0x0 REVERT JUMPDEST POP POP PUSH1 0x3 SLOAD PUSH1 0x40 MLOAD PUSH4 0xE4161181 PUSH1 0xE0 SHL DUP2 MSTORE PUSH1 0x0 SWAP4 POP PUSH1 0x1 PUSH1 0x1 PUSH1 0xA0 SHL SUB SWAP1 SWAP2 AND SWAP2 POP PUSH4 0xE4161181 SWAP1 PUSH2 0xFE7 SWAP1 DUP11 SWAP1 DUP10 SWAP1 PUSH1 0x4 ADD PUSH2 0x1466 JUMP JUMPDEST PUSH1 0x20 PUSH1 0x40 MLOAD DUP1 DUP4 SUB DUP2 DUP7 DUP1 EXTCODESIZE ISZERO DUP1 ISZERO PUSH2 0xFFF JUMPI PUSH1 0x0 DUP1 REVERT JUMPDEST POP GAS STATICCALL ISZERO DUP1 ISZERO PUSH2 0x1013 JUMPI RETURNDATASIZE PUSH1 0x0 DUP1 RETURNDATACOPY RETURNDATASIZE PUSH1 0x0 REVERT JUMPDEST POP POP POP POP PUSH1 0x40 MLOAD RETURNDATASIZE PUSH1 0x1F NOT PUSH1 0x1F DUP3 ADD AND DUP3 ADD DUP1 PUSH1 0x40 MSTORE POP DUP2 ADD SWAP1 PUSH2 0x1037 SWAP2 SWAP1 PUSH2 0x13D3 JUMP JUMPDEST PUSH1 0x40 MLOAD PUSH4 0x95EA7B3 PUSH1 0xE0 SHL DUP2 MSTORE SWAP1 SWAP2 POP PUSH1 0x1 PUSH1 0x1 PUSH1 0xA0 SHL SUB DUP8 AND SWAP1 PUSH4 0x95EA7B3 SWAP1 PUSH2 0x106A SWAP1 ADDRESS SWAP1 PUSH1 0x0 NOT SWAP1 PUSH1 0x4 ADD PUSH2 0x1466 JUMP JUMPDEST PUSH1 0x20 PUSH1 0x40 MLOAD DUP1 DUP4 SUB DUP2 PUSH1 0x0 DUP8 DUP1 EXTCODESIZE ISZERO DUP1 ISZERO PUSH2 0x1084 JUMPI PUSH1 0x0 DUP1 REVERT JUMPDEST POP GAS CALL ISZERO DUP1 ISZERO PUSH2 0x1098 JUMPI RETURNDATASIZE PUSH1 0x0 DUP1 RETURNDATACOPY RETURNDATASIZE PUSH1 0x0 REVERT JUMPDEST POP POP POP POP PUSH1 0x40 MLOAD RETURNDATASIZE PUSH1 0x1F NOT PUSH1 0x1F DUP3 ADD AND DUP3 ADD DUP1 PUSH1 0x40 MSTORE POP DUP2 ADD SWAP1 PUSH2 0x10BC SWAP2 SWAP1 PUSH2 0x13B3 JUMP JUMPDEST POP PUSH1 0x40 MLOAD PUSH4 0x23B872DD PUSH1 0xE0 SHL DUP2 MSTORE PUSH1 0x1 PUSH1 0x1 PUSH1 0xA0 SHL SUB DUP8 AND SWAP1 PUSH4 0x23B872DD SWAP1 PUSH2 0x10ED SWAP1 ADDRESS SWAP1 CALLER SWAP1 DUP7 SWAP1 PUSH1 0x4 ADD PUSH2 0x1442 JUMP JUMPDEST PUSH1 0x20 PUSH1 0x40 MLOAD DUP1 DUP4 SUB DUP2 PUSH1 0x0 DUP8 DUP1 EXTCODESIZE ISZERO DUP1 ISZERO PUSH2 0x1107 JUMPI PUSH1 0x0 DUP1 REVERT JUMPDEST POP GAS CALL ISZERO DUP1 ISZERO PUSH2 0x111B JUMPI RETURNDATASIZE PUSH1 0x0 DUP1 RETURNDATACOPY RETURNDATASIZE PUSH1 0x0 REVERT JUMPDEST POP POP POP POP PUSH1 0x40 MLOAD RETURNDATASIZE PUSH1 0x1F NOT PUSH1 0x1F DUP3 ADD AND DUP3 ADD DUP1 PUSH1 0x40 MSTORE POP DUP2 ADD SWAP1 PUSH2 0x113F SWAP2 SWAP1 PUSH2 0x13B3 JUMP JUMPDEST POP SWAP7 SWAP6 POP POP POP POP POP POP JUMP JUMPDEST DUP1 CALLDATALOAD PUSH1 0x1 PUSH1 0x1 PUSH1 0xA0 SHL SUB DUP2 AND DUP2 EQ PUSH2 0x1161 JUMPI PUSH1 0x0 DUP1 REVERT JUMPDEST SWAP2 SWAP1 POP JUMP JUMPDEST PUSH1 0x0 DUP1 PUSH1 0x0 PUSH1 0x60 DUP5 DUP7 SUB SLT ISZERO PUSH2 0x117A JUMPI DUP3 DUP4 REVERT JUMPDEST PUSH2 0x1183 DUP5 PUSH2 0x114A JUMP JUMPDEST SWAP3 POP PUSH2 0x1191 PUSH1 0x20 DUP6 ADD PUSH2 0x114A JUMP JUMPDEST SWAP2 POP PUSH1 0x40 DUP5 ADD CALLDATALOAD SWAP1 POP SWAP3 POP SWAP3 POP SWAP3 JUMP JUMPDEST PUSH1 0x0 DUP1 PUSH1 0x0 DUP1 PUSH1 0x80 DUP6 DUP8 SUB SLT ISZERO PUSH2 0x11B6 JUMPI DUP1 DUP2 REVERT JUMPDEST PUSH2 0x11BF DUP6 PUSH2 0x114A JUMP JUMPDEST SWAP4 POP PUSH2 0x11CD PUSH1 0x20 DUP7 ADD PUSH2 0x114A JUMP JUMPDEST SWAP3 POP PUSH1 0x40 DUP6 ADD CALLDATALOAD SWAP2 POP PUSH2 0x11E2 PUSH1 0x60 DUP7 ADD PUSH2 0x114A JUMP JUMPDEST SWAP1 POP SWAP3 SWAP6 SWAP2 SWAP5 POP SWAP3 POP JUMP JUMPDEST PUSH1 0x0 DUP1 PUSH1 0x40 DUP4 DUP6 SUB SLT ISZERO PUSH2 0x11FF JUMPI DUP2 DUP3 REVERT JUMPDEST PUSH2 0x1208 DUP4 PUSH2 0x114A JUMP JUMPDEST SWAP5 PUSH1 0x20 SWAP4 SWAP1 SWAP4 ADD CALLDATALOAD SWAP4 POP POP POP JUMP JUMPDEST PUSH1 0x0 PUSH1 0x20 DUP1 DUP4 DUP6 SUB SLT ISZERO PUSH2 0x1228 JUMPI DUP2 DUP3 REVERT JUMPDEST DUP3 CALLDATALOAD PUSH8 0xFFFFFFFFFFFFFFFF DUP1 DUP3 GT ISZERO PUSH2 0x123F JUMPI DUP4 DUP5 REVERT JUMPDEST DUP2 DUP6 ADD SWAP2 POP DUP6 PUSH1 0x1F DUP4 ADD SLT PUSH2 0x1252 JUMPI DUP4 DUP5 REVERT JUMPDEST DUP2 CALLDATALOAD PUSH2 0x1265 PUSH2 0x1260 DUP3 PUSH2 0x1598 JUMP JUMPDEST PUSH2 0x156E JUMP JUMPDEST DUP2 DUP2 MSTORE DUP5 DUP2 ADD SWAP1 DUP5 DUP7 ADD PUSH1 0xA0 DUP1 DUP6 MUL DUP8 ADD DUP9 ADD DUP12 LT ISZERO PUSH2 0x1283 JUMPI DUP9 DUP10 REVERT JUMPDEST DUP9 SWAP7 POP JUMPDEST DUP5 DUP8 LT ISZERO PUSH2 0x1314 JUMPI DUP1 DUP3 DUP13 SUB SLT ISZERO PUSH2 0x129D JUMPI DUP9 DUP10 REVERT JUMPDEST PUSH1 0x40 DUP1 MLOAD DUP3 DUP2 ADD DUP2 DUP2 LT DUP10 DUP3 GT OR ISZERO PUSH2 0x12B8 JUMPI PUSH2 0x12B8 PUSH2 0x165B JUMP JUMPDEST DUP3 MSTORE PUSH2 0x12C3 DUP5 PUSH2 0x114A JUMP JUMPDEST DUP2 MSTORE PUSH2 0x12D0 DUP11 DUP6 ADD PUSH2 0x114A JUMP JUMPDEST DUP11 DUP3 ADD MSTORE DUP2 DUP5 ADD CALLDATALOAD DUP3 DUP3 ADD MSTORE PUSH1 0x60 SWAP2 POP DUP2 DUP5 ADD CALLDATALOAD DUP3 DUP3 ADD MSTORE PUSH1 0x80 SWAP2 POP PUSH2 0x12F7 DUP3 DUP6 ADD PUSH2 0x114A JUMP JUMPDEST SWAP2 DUP2 ADD SWAP2 SWAP1 SWAP2 MSTORE DUP5 MSTORE PUSH1 0x1 SWAP7 SWAP1 SWAP7 ADD SWAP6 SWAP3 DUP8 ADD SWAP3 SWAP1 DUP2 ADD SWAP1 PUSH2 0x1287 JUMP JUMPDEST POP SWAP1 SWAP10 SWAP9 POP POP POP POP POP POP POP POP POP JUMP JUMPDEST PUSH1 0x0 PUSH1 0x20 DUP1 DUP4 DUP6 SUB SLT ISZERO PUSH2 0x1335 JUMPI DUP2 DUP3 REVERT JUMPDEST DUP3 MLOAD PUSH8 0xFFFFFFFFFFFFFFFF DUP2 GT ISZERO PUSH2 0x134B JUMPI DUP3 DUP4 REVERT JUMPDEST DUP4 ADD PUSH1 0x1F DUP2 ADD DUP6 SGT PUSH2 0x135B JUMPI DUP3 DUP4 REVERT JUMPDEST DUP1 MLOAD PUSH2 0x1369 PUSH2 0x1260 DUP3 PUSH2 0x1598 JUMP JUMPDEST DUP2 DUP2 MSTORE DUP4 DUP2 ADD SWAP1 DUP4 DUP6 ADD DUP6 DUP5 MUL DUP6 ADD DUP7 ADD DUP10 LT ISZERO PUSH2 0x1385 JUMPI DUP7 DUP8 REVERT JUMPDEST DUP7 SWAP5 POP JUMPDEST DUP4 DUP6 LT ISZERO PUSH2 0x13A7 JUMPI DUP1 MLOAD DUP4 MSTORE PUSH1 0x1 SWAP5 SWAP1 SWAP5 ADD SWAP4 SWAP2 DUP6 ADD SWAP2 DUP6 ADD PUSH2 0x1389 JUMP JUMPDEST POP SWAP8 SWAP7 POP POP POP POP POP POP POP JUMP JUMPDEST PUSH1 0x0 PUSH1 0x20 DUP3 DUP5 SUB SLT ISZERO PUSH2 0x13C4 JUMPI DUP1 DUP2 REVERT JUMPDEST DUP2 MLOAD DUP1 ISZERO ISZERO DUP2 EQ PUSH2 0x248 JUMPI DUP2 DUP3 REVERT JUMPDEST PUSH1 0x0 PUSH1 0x20 DUP3 DUP5 SUB SLT ISZERO PUSH2 0x13E4 JUMPI DUP1 DUP2 REVERT JUMPDEST POP MLOAD SWAP2 SWAP1 POP JUMP JUMPDEST PUSH1 0x0 DUP2 MLOAD DUP1 DUP5 MSTORE PUSH1 0x20 DUP1 DUP6 ADD SWAP5 POP DUP1 DUP5 ADD DUP4 JUMPDEST DUP4 DUP2 LT ISZERO PUSH2 0x1423 JUMPI DUP2 MLOAD PUSH1 0x1 PUSH1 0x1 PUSH1 0xA0 SHL SUB AND DUP8 MSTORE SWAP6 DUP3 ADD SWAP6 SWAP1 DUP3 ADD SWAP1 PUSH1 0x1 ADD PUSH2 0x13FE JUMP JUMPDEST POP SWAP5 SWAP6 SWAP5 POP POP POP POP POP JUMP JUMPDEST PUSH1 0x1 PUSH1 0x1 PUSH1 0xA0 SHL SUB SWAP2 SWAP1 SWAP2 AND DUP2 MSTORE PUSH1 0x20 ADD SWAP1 JUMP JUMPDEST PUSH1 0x1 PUSH1 0x1 PUSH1 0xA0 SHL SUB SWAP4 DUP5 AND DUP2 MSTORE SWAP2 SWAP1 SWAP3 AND PUSH1 0x20 DUP3 ADD MSTORE PUSH1 0x40 DUP2 ADD SWAP2 SWAP1 SWAP2 MSTORE PUSH1 0x60 ADD SWAP1 JUMP JUMPDEST PUSH1 0x1 PUSH1 0x1 PUSH1 0xA0 SHL SUB SWAP3 SWAP1 SWAP3 AND DUP3 MSTORE PUSH1 0x20 DUP3 ADD MSTORE PUSH1 0x40 ADD SWAP1 JUMP JUMPDEST PUSH1 0x1 PUSH1 0x1 PUSH1 0xA0 SHL SUB DUP7 DUP2 AND DUP3 MSTORE PUSH1 0x20 DUP3 ADD DUP7 SWAP1 MSTORE DUP5 AND PUSH1 0x40 DUP3 ADD MSTORE PUSH1 0x60 DUP2 ADD DUP4 SWAP1 MSTORE PUSH1 0xA0 PUSH1 0x80 DUP3 ADD DUP2 SWAP1 MSTORE PUSH1 0x0 SWAP1 PUSH2 0x14B9 SWAP1 DUP4 ADD DUP5 PUSH2 0x13EB JUMP JUMPDEST SWAP8 SWAP7 POP POP POP POP POP POP POP JUMP JUMPDEST PUSH1 0x0 PUSH1 0x1 DUP1 PUSH1 0xA0 SHL SUB DUP6 AND DUP3 MSTORE DUP4 PUSH1 0x20 DUP4 ADD MSTORE PUSH1 0x60 PUSH1 0x40 DUP4 ADD MSTORE PUSH2 0x14EB PUSH1 0x60 DUP4 ADD DUP5 PUSH2 0x13EB JUMP JUMPDEST SWAP6 SWAP5 POP POP POP POP POP JUMP JUMPDEST PUSH1 0x0 DUP6 DUP3 MSTORE PUSH1 0x80 PUSH1 0x20 DUP4 ADD MSTORE PUSH2 0x150D PUSH1 0x80 DUP4 ADD DUP7 PUSH2 0x13EB JUMP JUMPDEST PUSH1 0x1 PUSH1 0x1 PUSH1 0xA0 SHL SUB SWAP5 SWAP1 SWAP5 AND PUSH1 0x40 DUP4 ADD MSTORE POP PUSH1 0x60 ADD MSTORE SWAP3 SWAP2 POP POP JUMP JUMPDEST SWAP1 DUP2 MSTORE PUSH1 0x20 ADD SWAP1 JUMP JUMPDEST PUSH1 0x0 DUP7 DUP3 MSTORE DUP6 PUSH1 0x20 DUP4 ADD MSTORE PUSH1 0xA0 PUSH1 0x40 DUP4 ADD MSTORE PUSH2 0x1551 PUSH1 0xA0 DUP4 ADD DUP7 PUSH2 0x13EB JUMP JUMPDEST PUSH1 0x1 PUSH1 0x1 PUSH1 0xA0 SHL SUB SWAP5 SWAP1 SWAP5 AND PUSH1 0x60 DUP4 ADD MSTORE POP PUSH1 0x80 ADD MSTORE SWAP4 SWAP3 POP POP POP JUMP JUMPDEST PUSH1 0x40 MLOAD DUP2 DUP2 ADD PUSH8 0xFFFFFFFFFFFFFFFF DUP2 GT DUP3 DUP3 LT OR ISZERO PUSH2 0x1590 JUMPI PUSH2 0x1590 PUSH2 0x165B JUMP JUMPDEST PUSH1 0x40 MSTORE SWAP2 SWAP1 POP JUMP JUMPDEST PUSH1 0x0 PUSH8 0xFFFFFFFFFFFFFFFF DUP3 GT ISZERO PUSH2 0x15B2 JUMPI PUSH2 0x15B2 PUSH2 0x165B JUMP JUMPDEST POP PUSH1 0x20 SWAP1 DUP2 MUL ADD SWAP1 JUMP JUMPDEST PUSH1 0x0 DUP3 NOT DUP3 GT ISZERO PUSH2 0x15CF JUMPI PUSH2 0x15CF PUSH2 0x1645 JUMP JUMPDEST POP ADD SWAP1 JUMP JUMPDEST PUSH1 0x0 DUP3 PUSH2 0x15EF JUMPI PUSH4 0x4E487B71 PUSH1 0xE0 SHL DUP2 MSTORE PUSH1 0x12 PUSH1 0x4 MSTORE PUSH1 0x24 DUP2 REVERT JUMPDEST POP DIV SWAP1 JUMP JUMPDEST PUSH1 0x0 DUP2 PUSH1 0x0 NOT DIV DUP4 GT DUP3 ISZERO ISZERO AND ISZERO PUSH2 0x160E JUMPI PUSH2 0x160E PUSH2 0x1645 JUMP JUMPDEST POP MUL SWAP1 JUMP JUMPDEST PUSH1 0x0 DUP3 DUP3 LT ISZERO PUSH2 0x1625 JUMPI PUSH2 0x1625 PUSH2 0x1645 JUMP JUMPDEST POP SUB SWAP1 JUMP JUMPDEST PUSH1 0x0 PUSH1 0x0 NOT DUP3 EQ ISZERO PUSH2 0x163E JUMPI PUSH2 0x163E PUSH2 0x1645 JUMP JUMPDEST POP PUSH1 0x1 ADD SWAP1 JUMP JUMPDEST PUSH4 0x4E487B71 PUSH1 0xE0 SHL PUSH1 0x0 MSTORE PUSH1 0x11 PUSH1 0x4 MSTORE PUSH1 0x24 PUSH1 0x0 REVERT JUMPDEST PUSH4 0x4E487B71 PUSH1 0xE0 SHL PUSH1 0x0 MSTORE PUSH1 0x41 PUSH1 0x4 MSTORE PUSH1 0x24 PUSH1 0x0 REVERT INVALID LOG2 PUSH5 0x6970667358 0x22 SLT KECCAK256 EXTCODECOPY 0xDD OR 0x29 PUSH10 0xAEDF21B92E7ED0D553DD 0x1E RETURN EXTCODESIZE PUSH30 0x707623765FA26C97C10899472964736F6C63430008000033000000000000 "
		},
		"gasEstimates": {
			"creation": {
				"codeDepositCost": "1159800",
				"executionCost": "104524",
				"totalCost": "1264324"
			},
			"external": {
				"WKLAY()": "1093",
				"defSwapKct(address,address,uint256)": "infinite",
				"defSwapKlay(address,uint256)": "infinite",
				"definixRouter()": "1137",
				"klayswapFactory()": "1136",
				"kslp()": "1071",
				"kspSwapKct(address,address,uint256)": "infinite",
				"kspSwapKlay(address,uint256)": "infinite",
				"main((address,address,uint256,uint256,address)[])": "infinite",
				"owner()": "1070",
				"swapDefinix(address,address,uint256)": "infinite",
				"swapKlayswap(address,address,uint256,address)": "infinite"
			}
		},
		"methodIdentifiers": {
			"WKLAY()": "249502d7",
			"defSwapKct(address,address,uint256)": "76e6b7d0",
			"defSwapKlay(address,uint256)": "f02ccfa7",
			"definixRouter()": "4136195f",
			"klayswapFactory()": "eef44297",
			"kslp()": "160ce6e9",
			"kspSwapKct(address,address,uint256)": "f0c55b58",
			"kspSwapKlay(address,uint256)": "9ac1ef38",
			"main((address,address,uint256,uint256,address)[])": "a5cfb6a3",
			"owner()": "8da5cb5b",
			"swapDefinix(address,address,uint256)": "31cf6c62",
			"swapKlayswap(address,address,uint256,address)": "5b0f0e35"
		}
	},
	"abi": [
		{
			"inputs": [],
			"stateMutability": "nonpayable",
			"type": "constructor"
		},
		{
			"anonymous": false,
			"inputs": [
				{
					"indexed": false,
					"internalType": "uint256",
					"name": "allowance",
					"type": "uint256"
				}
			],
			"name": "allowed",
			"type": "event"
		},
		{
			"anonymous": false,
			"inputs": [
				{
					"indexed": false,
					"internalType": "uint256",
					"name": "amountB",
					"type": "uint256"
				}
			],
			"name": "swapped",
			"type": "event"
		},
		{
			"inputs": [],
			"name": "WKLAY",
			"outputs": [
				{
					"internalType": "address",
					"name": "",
					"type": "address"
				}
			],
			"stateMutability": "view",
			"type": "function"
		},
		{
			"inputs": [
				{
					"internalType": "address",
					"name": "tokenA",
					"type": "address"
				},
				{
					"internalType": "address",
					"name": "tokenB",
					"type": "address"
				},
				{
					"internalType": "uint256",
					"name": "amountA",
					"type": "uint256"
				}
			],
			"name": "defSwapKct",
			"outputs": [
				{
					"internalType": "uint256",
					"name": "amountB",
					"type": "uint256"
				}
			],
			"stateMutability": "nonpayable",
			"type": "function"
		},
		{
			"inputs": [
				{
					"internalType": "address",
					"name": "tokenB",
					"type": "address"
				},
				{
					"internalType": "uint256",
					"name": "amountA",
					"type": "uint256"
				}
			],
			"name": "defSwapKlay",
			"outputs": [
				{
					"internalType": "uint256",
					"name": "amountB",
					"type": "uint256"
				}
			],
			"stateMutability": "nonpayable",
			"type": "function"
		},
		{
			"inputs": [],
			"name": "definixRouter",
			"outputs": [
				{
					"internalType": "address",
					"name": "",
					"type": "address"
				}
			],
			"stateMutability": "view",
			"type": "function"
		},
		{
			"inputs": [],
			"name": "klayswapFactory",
			"outputs": [
				{
					"internalType": "address",
					"name": "",
					"type": "address"
				}
			],
			"stateMutability": "view",
			"type": "function"
		},
		{
			"inputs": [],
			"name": "kslp",
			"outputs": [
				{
					"internalType": "address",
					"name": "",
					"type": "address"
				}
			],
			"stateMutability": "view",
			"type": "function"
		},
		{
			"inputs": [
				{
					"internalType": "address",
					"name": "tokenA",
					"type": "address"
				},
				{
					"internalType": "address",
					"name": "tokenB",
					"type": "address"
				},
				{
					"internalType": "uint256",
					"name": "amount",
					"type": "uint256"
				}
			],
			"name": "kspSwapKct",
			"outputs": [
				{
					"internalType": "uint256",
					"name": "",
					"type": "uint256"
				}
			],
			"stateMutability": "nonpayable",
			"type": "function"
		},
		{
			"inputs": [
				{
					"internalType": "address",
					"name": "tokenB",
					"type": "address"
				},
				{
					"internalType": "uint256",
					"name": "amount",
					"type": "uint256"
				}
			],
			"name": "kspSwapKlay",
			"outputs": [
				{
					"internalType": "uint256",
					"name": "",
					"type": "uint256"
				}
			],
			"stateMutability": "payable",
			"type": "function"
		},
		{
			"inputs": [
				{
					"components": [
						{
							"internalType": "address",
							"name": "_from",
							"type": "address"
						},
						{
							"internalType": "address",
							"name": "_to",
							"type": "address"
						},
						{
							"internalType": "uint256",
							"name": "_kspAmount",
							"type": "uint256"
						},
						{
							"internalType": "uint256",
							"name": "_defAmount",
							"type": "uint256"
						},
						{
							"internalType": "address",
							"name": "_kspLP",
							"type": "address"
						}
					],
					"internalType": "struct NaviSwap.Swap[]",
					"name": "_path",
					"type": "tuple[]"
				}
			],
			"name": "main",
			"outputs": [],
			"stateMutability": "payable",
			"type": "function"
		},
		{
			"inputs": [],
			"name": "owner",
			"outputs": [
				{
					"internalType": "address payable",
					"name": "",
					"type": "address"
				}
			],
			"stateMutability": "view",
			"type": "function"
		},
		{
			"inputs": [
				{
					"internalType": "address",
					"name": "tokenA",
					"type": "address"
				},
				{
					"internalType": "address",
					"name": "tokenB",
					"type": "address"
				},
				{
					"internalType": "uint256",
					"name": "amountA",
					"type": "uint256"
				}
			],
			"name": "swapDefinix",
			"outputs": [
				{
					"internalType": "uint256",
					"name": "",
					"type": "uint256"
				}
			],
			"stateMutability": "payable",
			"type": "function"
		},
		{
			"inputs": [
				{
					"internalType": "address",
					"name": "tokenA",
					"type": "address"
				},
				{
					"internalType": "address",
					"name": "tokenB",
					"type": "address"
				},
				{
					"internalType": "uint256",
					"name": "amountA",
					"type": "uint256"
				},
				{
					"internalType": "address",
					"name": "lpAddress",
					"type": "address"
				}
			],
			"name": "swapKlayswap",
			"outputs": [
				{
					"internalType": "uint256",
					"name": "amountB",
					"type": "uint256"
				}
			],
			"stateMutability": "payable",
			"type": "function"
		},
		{
			"stateMutability": "payable",
			"type": "receive"
		}
	]
}