{
	"data": {
		"bytecode": {
			"linkReferences": {},
			"object": "6080604052600080546001600160a01b0319908116734e61743278ed45975e3038bedcaa537816b66b5b17909155600180548216735819b6af194a78511c79c85ea68d2377a7e9335f17815560028054831673c6a2ad8cc6e4a7e08fc37cc5954be07d499e76541790556003805490921673d83f1b074d81869eff2c46c530d7308ffec180361790915560055534801561009857600080fd5b506116a5806100a86000396000f3fe6080604052600436106100ab5760003560e01c80638da5cb5b116100645780638da5cb5b1461015f5780639ac1ef3814610174578063a5cfb6a314610187578063eef442971461019c578063f02ccfa7146101b1578063f0c55b58146101c4576100b2565b8063160ce6e9146100b7578063249502d7146100e257806331cf6c62146100f75780634136195f146101175780635b0f0e351461012c57806376e6b7d01461013f576100b2565b366100b257005b600080fd5b3480156100c357600080fd5b506100cc6101e4565b6040516100d9919061142c565b60405180910390f35b3480156100ee57600080fd5b506100cc6101f3565b61010a610105366004611164565b610202565b6040516100d99190611527565b34801561012357600080fd5b506100cc610242565b61010a61013a36600461119f565b610251565b34801561014b57600080fd5b5061010a61015a366004611164565b6102aa565b34801561016b57600080fd5b506100cc610693565b61010a6101823660046111eb565b6106a2565b61019a610195366004611214565b6108bc565b005b3480156101a857600080fd5b506100cc610c3c565b61010a6101bf3660046111eb565b610c4b565b3480156101d057600080fd5b5061010a6101df366004611164565b610e2f565b6003546001600160a01b031681565b6001546001600160a01b031681565b6000816102115750600061023b565b6001600160a01b038416610230576102298383610c4b565b905061023b565b6102298484846102aa565b9392505050565b6000546001600160a01b031681565b600082610260575060006102a2565b600380546001600160a01b0319166001600160a01b038481169190911790915585166102975761029084846106a2565b90506102a2565b610290858585610e2f565b949350505050565b6000806102b94261012c6115ba565b604080516002808252606082018352929350600092909160208301908036833750506040516323b872dd60e01b8152919250506001600160a01b038716906323b872dd9061030f90339030908990600401611440565b602060405180830381600087803b15801561032957600080fd5b505af115801561033d573d6000803e3d6000fd5b505050506040513d601f19601f8201168201806040525081019061036191906113b1565b5060005460405163095ea7b360e01b81526001600160a01b038881169263095ea7b392610398929091169060001990600401611464565b602060405180830381600087803b1580156103b257600080fd5b505af11580156103c6573d6000803e3d6000fd5b505050506040513d601f19601f820116820180604052508101906103ea91906113b1565b5060606001600160a01b0386166104fd57868260008151811061041d57634e487b7160e01b600052603260045260246000fd5b6001600160a01b039283166020918202929092010152600180548451921691849190811061045b57634e487b7160e01b600052603260045260246000fd5b6001600160a01b039283166020918202929092010152600080546040516318cbafe560e01b81529216916318cbafe5916104a091899190879033908a90600401611530565b600060405180830381600087803b1580156104ba57600080fd5b505af11580156104ce573d6000803e3d6000fd5b505050506040513d6000823e601f3d908101601f191682016040526104f69190810190611321565b90506105ff565b868260008151811061051f57634e487b7160e01b600052603260045260246000fd5b60200260200101906001600160a01b031690816001600160a01b031681525050858260018151811061056157634e487b7160e01b600052603260045260246000fd5b6001600160a01b039283166020918202929092010152600080546040516338ed173960e01b81529216916338ed1739916105a691899190879033908a90600401611530565b600060405180830381600087803b1580156105c057600080fd5b505af11580156105d4573d6000803e3d6000fd5b505050506040513d6000823e601f3d908101601f191682016040526105fc9190810190611321565b90505b7f56c1cc0ee18fd18b7913508d06a3a97bb1f19264a63fcbb16e884eb8c083b2ce8160018151811061064157634e487b7160e01b600052603260045260246000fd5b60200260200101516040516106569190611527565b60405180910390a18060018151811061067f57634e487b7160e01b600052603260045260246000fd5b602002602001015193505050509392505050565b6004546001600160a01b031681565b600034156106ae573491505b604080516000815260208101918290526002546306cae84560e21b909252906001906001600160a01b0316631b2ba114620f4240866106f2898688602481016114c2565b6000604051808303818589803b15801561070b57600080fd5b5088f115801561071f573d6000803e3d6000fd5b505060035460405163e416118160e01b8152600095506001600160a01b03909116935063e4161181925061075a915084908990600401611464565b60206040518083038186803b15801561077257600080fd5b505afa158015610786573d6000803e3d6000fd5b505050506040513d601f19601f820116820180604052508101906107aa91906113d1565b60405163095ea7b360e01b81529091506001600160a01b0387169063095ea7b3906107dd90309060001990600401611464565b602060405180830381600087803b1580156107f757600080fd5b505af115801561080b573d6000803e3d6000fd5b505050506040513d601f19601f8201168201806040525081019061082f91906113b1565b506040516323b872dd60e01b81526001600160a01b038716906323b872dd9061086090309033908690600401611440565b602060405180830381600087803b15801561087a57600080fd5b505af115801561088e573d6000803e3d6000fd5b505050506040513d601f19601f820116820180604052508101906108b291906113b1565b5095945050505050565b805160008281836108dd57634e487b7160e01b600052603260045260246000fd5b602002602001015160400151905060008360008151811061090e57634e487b7160e01b600052603260045260246000fd5b602002602001015160600151905060005b61092a600185611611565b811015610b1e5760006109c086838151811061095657634e487b7160e01b600052603260045260246000fd5b60200260200101516000015187848151811061098257634e487b7160e01b600052603260045260246000fd5b602002602001015160200151868986815181106109af57634e487b7160e01b600052603260045260246000fd5b602002602001015160800151610251565b6109ca90826115ba565b9050610a2d8683815181106109ef57634e487b7160e01b600052603260045260246000fd5b602002602001015160000151878481518110610a1b57634e487b7160e01b600052603260045260246000fd5b60200260200101516020015185610202565b610a3790826115ba565b905085610a458360016115ba565b81518110610a6357634e487b7160e01b600052603260045260246000fd5b60200260200101516060015186836001610a7d91906115ba565b81518110610a9b57634e487b7160e01b600052603260045260246000fd5b602002602001015160400151610ab191906115ba565b86610abd8460016115ba565b81518110610adb57634e487b7160e01b600052603260045260246000fd5b60200260200101516040015182610af291906115f2565b610afc91906115d2565b9350610b088482611611565b9250508080610b1690611628565b91505061091f565b50610bbd84610b2e600186611611565b81518110610b4c57634e487b7160e01b600052603260045260246000fd5b60200260200101516000015185600186610b669190611611565b81518110610b8457634e487b7160e01b600052603260045260246000fd5b6020026020010151602001518487600188610b9f9190611611565b815181106109af57634e487b7160e01b600052603260045260246000fd5b50610c3584610bcd600186611611565b81518110610beb57634e487b7160e01b600052603260045260246000fd5b60200260200101516000015185600186610c059190611611565b81518110610c2357634e487b7160e01b600052603260045260246000fd5b60200260200101516020015183610202565b5050505050565b6002546001600160a01b031681565b60003415610c57573491505b6000610c654261012c6115ba565b6040805160028082526060820183529293506000929091602083019080368337505060015482519293506001600160a01b031691839150600090610cb957634e487b7160e01b600052603260045260246000fd5b60200260200101906001600160a01b031690816001600160a01b0316815250508481600181518110610cfb57634e487b7160e01b600052603260045260246000fd5b6001600160a01b03928316602091820292909201015260008054604051637ff36ab560e01b81526060939190911691637ff36ab5918891610d4491879033908a906004016114f2565b6000604051808303818588803b158015610d5d57600080fd5b505af1158015610d71573d6000803e3d6000fd5b50505050506040513d6000823e601f3d908101601f19168201604052610d9a9190810190611321565b90507f56c1cc0ee18fd18b7913508d06a3a97bb1f19264a63fcbb16e884eb8c083b2ce81600181518110610dde57634e487b7160e01b600052603260045260246000fd5b6020026020010151604051610df39190611527565b60405180910390a180600181518110610e1c57634e487b7160e01b600052603260045260246000fd5b6020026020010151935050505092915050565b60408051600080825260208201928390526323b872dd60e01b9092526001600160a01b0385166323b872dd610e6933308760248701611440565b602060405180830381600087803b158015610e8357600080fd5b505af1158015610e97573d6000803e3d6000fd5b505050506040513d601f19601f82011682018060405250810190610ebb91906113b1565b5060025460405163095ea7b360e01b81526001600160a01b038781169263095ea7b392610ef2929091169060001990600401611464565b602060405180830381600087803b158015610f0c57600080fd5b505af1158015610f20573d6000803e3d6000fd5b505050506040513d601f19601f82011682018060405250810190610f4491906113b1565b506002546040516352f28c1760e01b81526001916001600160a01b0316906352f28c1790610f7e90899088908a908790899060040161147d565b600060405180830381600087803b158015610f9857600080fd5b505af1158015610fac573d6000803e3d6000fd5b505060035460405163e416118160e01b8152600093506001600160a01b03909116915063e416118190610fe5908a908990600401611464565b60206040518083038186803b158015610ffd57600080fd5b505afa158015611011573d6000803e3d6000fd5b505050506040513d601f19601f8201168201806040525081019061103591906113d1565b60405163095ea7b360e01b81529091506001600160a01b0387169063095ea7b39061106890309060001990600401611464565b602060405180830381600087803b15801561108257600080fd5b505af1158015611096573d6000803e3d6000fd5b505050506040513d601f19601f820116820180604052508101906110ba91906113b1565b506040516323b872dd60e01b81526001600160a01b038716906323b872dd906110eb90309033908690600401611440565b602060405180830381600087803b15801561110557600080fd5b505af1158015611119573d6000803e3d6000fd5b505050506040513d601f19601f8201168201806040525081019061113d91906113b1565b509695505050505050565b80356001600160a01b038116811461115f57600080fd5b919050565b600080600060608486031215611178578283fd5b61118184611148565b925061118f60208501611148565b9150604084013590509250925092565b600080600080608085870312156111b4578081fd5b6111bd85611148565b93506111cb60208601611148565b9250604085013591506111e060608601611148565b905092959194509250565b600080604083850312156111fd578182fd5b61120683611148565b946020939093013593505050565b60006020808385031215611226578182fd5b823567ffffffffffffffff8082111561123d578384fd5b818501915085601f830112611250578384fd5b813561126361125e82611596565b61156c565b8181528481019084860160a0808502870188018b1015611281578889fd5b8896505b848710156113125780828c03121561129b578889fd5b6040805182810181811089821117156112b6576112b6611659565b82526112c184611148565b81526112ce8a8501611148565b8a8201528184013582820152606091508184013582820152608091506112f5828501611148565b918101919091528452600196909601959287019290810190611285565b50909998505050505050505050565b60006020808385031215611333578182fd5b825167ffffffffffffffff811115611349578283fd5b8301601f81018513611359578283fd5b805161136761125e82611596565b8181528381019083850185840285018601891015611383578687fd5b8694505b838510156113a5578051835260019490940193918501918501611387565b50979650505050505050565b6000602082840312156113c2578081fd5b8151801515811461023b578182fd5b6000602082840312156113e2578081fd5b5051919050565b6000815180845260208085019450808401835b838110156114215781516001600160a01b0316875295820195908201906001016113fc565b509495945050505050565b6001600160a01b0391909116815260200190565b6001600160a01b039384168152919092166020820152604081019190915260600190565b6001600160a01b03929092168252602082015260400190565b6001600160a01b03868116825260208201869052841660408201526060810183905260a0608082018190526000906114b7908301846113e9565b979650505050505050565b600060018060a01b0385168252836020830152606060408301526114e960608301846113e9565b95945050505050565b60008582526080602083015261150b60808301866113e9565b6001600160a01b03949094166040830152506060015292915050565b90815260200190565b600086825285602083015260a0604083015261154f60a08301866113e9565b6001600160a01b0394909416606083015250608001529392505050565b60405181810167ffffffffffffffff8111828210171561158e5761158e611659565b604052919050565b600067ffffffffffffffff8211156115b0576115b0611659565b5060209081020190565b600082198211156115cd576115cd611643565b500190565b6000826115ed57634e487b7160e01b81526012600452602481fd5b500490565b600081600019048311821515161561160c5761160c611643565b500290565b60008282101561162357611623611643565b500390565b600060001982141561163c5761163c611643565b5060010190565b634e487b7160e01b600052601160045260246000fd5b634e487b7160e01b600052604160045260246000fdfea2646970667358221220122d74a9739699d9842dbf57d408ff369b66e777d12c55e0a334711e55b4044d64736f6c63430008000033",
			"opcodes": "PUSH1 0x80 PUSH1 0x40 MSTORE PUSH1 0x0 DUP1 SLOAD PUSH1 0x1 PUSH1 0x1 PUSH1 0xA0 SHL SUB NOT SWAP1 DUP2 AND PUSH20 0x4E61743278ED45975E3038BEDCAA537816B66B5B OR SWAP1 SWAP2 SSTORE PUSH1 0x1 DUP1 SLOAD DUP3 AND PUSH20 0x5819B6AF194A78511C79C85EA68D2377A7E9335F OR DUP2 SSTORE PUSH1 0x2 DUP1 SLOAD DUP4 AND PUSH20 0xC6A2AD8CC6E4A7E08FC37CC5954BE07D499E7654 OR SWAP1 SSTORE PUSH1 0x3 DUP1 SLOAD SWAP1 SWAP3 AND PUSH20 0xD83F1B074D81869EFF2C46C530D7308FFEC18036 OR SWAP1 SWAP2 SSTORE PUSH1 0x5 SSTORE CALLVALUE DUP1 ISZERO PUSH2 0x98 JUMPI PUSH1 0x0 DUP1 REVERT JUMPDEST POP PUSH2 0x16A5 DUP1 PUSH2 0xA8 PUSH1 0x0 CODECOPY PUSH1 0x0 RETURN INVALID PUSH1 0x80 PUSH1 0x40 MSTORE PUSH1 0x4 CALLDATASIZE LT PUSH2 0xAB JUMPI PUSH1 0x0 CALLDATALOAD PUSH1 0xE0 SHR DUP1 PUSH4 0x8DA5CB5B GT PUSH2 0x64 JUMPI DUP1 PUSH4 0x8DA5CB5B EQ PUSH2 0x15F JUMPI DUP1 PUSH4 0x9AC1EF38 EQ PUSH2 0x174 JUMPI DUP1 PUSH4 0xA5CFB6A3 EQ PUSH2 0x187 JUMPI DUP1 PUSH4 0xEEF44297 EQ PUSH2 0x19C JUMPI DUP1 PUSH4 0xF02CCFA7 EQ PUSH2 0x1B1 JUMPI DUP1 PUSH4 0xF0C55B58 EQ PUSH2 0x1C4 JUMPI PUSH2 0xB2 JUMP JUMPDEST DUP1 PUSH4 0x160CE6E9 EQ PUSH2 0xB7 JUMPI DUP1 PUSH4 0x249502D7 EQ PUSH2 0xE2 JUMPI DUP1 PUSH4 0x31CF6C62 EQ PUSH2 0xF7 JUMPI DUP1 PUSH4 0x4136195F EQ PUSH2 0x117 JUMPI DUP1 PUSH4 0x5B0F0E35 EQ PUSH2 0x12C JUMPI DUP1 PUSH4 0x76E6B7D0 EQ PUSH2 0x13F JUMPI PUSH2 0xB2 JUMP JUMPDEST CALLDATASIZE PUSH2 0xB2 JUMPI STOP JUMPDEST PUSH1 0x0 DUP1 REVERT JUMPDEST CALLVALUE DUP1 ISZERO PUSH2 0xC3 JUMPI PUSH1 0x0 DUP1 REVERT JUMPDEST POP PUSH2 0xCC PUSH2 0x1E4 JUMP JUMPDEST PUSH1 0x40 MLOAD PUSH2 0xD9 SWAP2 SWAP1 PUSH2 0x142C JUMP JUMPDEST PUSH1 0x40 MLOAD DUP1 SWAP2 SUB SWAP1 RETURN JUMPDEST CALLVALUE DUP1 ISZERO PUSH2 0xEE JUMPI PUSH1 0x0 DUP1 REVERT JUMPDEST POP PUSH2 0xCC PUSH2 0x1F3 JUMP JUMPDEST PUSH2 0x10A PUSH2 0x105 CALLDATASIZE PUSH1 0x4 PUSH2 0x1164 JUMP JUMPDEST PUSH2 0x202 JUMP JUMPDEST PUSH1 0x40 MLOAD PUSH2 0xD9 SWAP2 SWAP1 PUSH2 0x1527 JUMP JUMPDEST CALLVALUE DUP1 ISZERO PUSH2 0x123 JUMPI PUSH1 0x0 DUP1 REVERT JUMPDEST POP PUSH2 0xCC PUSH2 0x242 JUMP JUMPDEST PUSH2 0x10A PUSH2 0x13A CALLDATASIZE PUSH1 0x4 PUSH2 0x119F JUMP JUMPDEST PUSH2 0x251 JUMP JUMPDEST CALLVALUE DUP1 ISZERO PUSH2 0x14B JUMPI PUSH1 0x0 DUP1 REVERT JUMPDEST POP PUSH2 0x10A PUSH2 0x15A CALLDATASIZE PUSH1 0x4 PUSH2 0x1164 JUMP JUMPDEST PUSH2 0x2AA JUMP JUMPDEST CALLVALUE DUP1 ISZERO PUSH2 0x16B JUMPI PUSH1 0x0 DUP1 REVERT JUMPDEST POP PUSH2 0xCC PUSH2 0x693 JUMP JUMPDEST PUSH2 0x10A PUSH2 0x182 CALLDATASIZE PUSH1 0x4 PUSH2 0x11EB JUMP JUMPDEST PUSH2 0x6A2 JUMP JUMPDEST PUSH2 0x19A PUSH2 0x195 CALLDATASIZE PUSH1 0x4 PUSH2 0x1214 JUMP JUMPDEST PUSH2 0x8BC JUMP JUMPDEST STOP JUMPDEST CALLVALUE DUP1 ISZERO PUSH2 0x1A8 JUMPI PUSH1 0x0 DUP1 REVERT JUMPDEST POP PUSH2 0xCC PUSH2 0xC3C JUMP JUMPDEST PUSH2 0x10A PUSH2 0x1BF CALLDATASIZE PUSH1 0x4 PUSH2 0x11EB JUMP JUMPDEST PUSH2 0xC4B JUMP JUMPDEST CALLVALUE DUP1 ISZERO PUSH2 0x1D0 JUMPI PUSH1 0x0 DUP1 REVERT JUMPDEST POP PUSH2 0x10A PUSH2 0x1DF CALLDATASIZE PUSH1 0x4 PUSH2 0x1164 JUMP JUMPDEST PUSH2 0xE2F JUMP JUMPDEST PUSH1 0x3 SLOAD PUSH1 0x1 PUSH1 0x1 PUSH1 0xA0 SHL SUB AND DUP2 JUMP JUMPDEST PUSH1 0x1 SLOAD PUSH1 0x1 PUSH1 0x1 PUSH1 0xA0 SHL SUB AND DUP2 JUMP JUMPDEST PUSH1 0x0 DUP2 PUSH2 0x211 JUMPI POP PUSH1 0x0 PUSH2 0x23B JUMP JUMPDEST PUSH1 0x1 PUSH1 0x1 PUSH1 0xA0 SHL SUB DUP5 AND PUSH2 0x230 JUMPI PUSH2 0x229 DUP4 DUP4 PUSH2 0xC4B JUMP JUMPDEST SWAP1 POP PUSH2 0x23B JUMP JUMPDEST PUSH2 0x229 DUP5 DUP5 DUP5 PUSH2 0x2AA JUMP JUMPDEST SWAP4 SWAP3 POP POP POP JUMP JUMPDEST PUSH1 0x0 SLOAD PUSH1 0x1 PUSH1 0x1 PUSH1 0xA0 SHL SUB AND DUP2 JUMP JUMPDEST PUSH1 0x0 DUP3 PUSH2 0x260 JUMPI POP PUSH1 0x0 PUSH2 0x2A2 JUMP JUMPDEST PUSH1 0x3 DUP1 SLOAD PUSH1 0x1 PUSH1 0x1 PUSH1 0xA0 SHL SUB NOT AND PUSH1 0x1 PUSH1 0x1 PUSH1 0xA0 SHL SUB DUP5 DUP2 AND SWAP2 SWAP1 SWAP2 OR SWAP1 SWAP2 SSTORE DUP6 AND PUSH2 0x297 JUMPI PUSH2 0x290 DUP5 DUP5 PUSH2 0x6A2 JUMP JUMPDEST SWAP1 POP PUSH2 0x2A2 JUMP JUMPDEST PUSH2 0x290 DUP6 DUP6 DUP6 PUSH2 0xE2F JUMP JUMPDEST SWAP5 SWAP4 POP POP POP POP JUMP JUMPDEST PUSH1 0x0 DUP1 PUSH2 0x2B9 TIMESTAMP PUSH2 0x12C PUSH2 0x15BA JUMP JUMPDEST PUSH1 0x40 DUP1 MLOAD PUSH1 0x2 DUP1 DUP3 MSTORE PUSH1 0x60 DUP3 ADD DUP4 MSTORE SWAP3 SWAP4 POP PUSH1 0x0 SWAP3 SWAP1 SWAP2 PUSH1 0x20 DUP4 ADD SWAP1 DUP1 CALLDATASIZE DUP4 CALLDATACOPY POP POP PUSH1 0x40 MLOAD PUSH4 0x23B872DD PUSH1 0xE0 SHL DUP2 MSTORE SWAP2 SWAP3 POP POP PUSH1 0x1 PUSH1 0x1 PUSH1 0xA0 SHL SUB DUP8 AND SWAP1 PUSH4 0x23B872DD SWAP1 PUSH2 0x30F SWAP1 CALLER SWAP1 ADDRESS SWAP1 DUP10 SWAP1 PUSH1 0x4 ADD PUSH2 0x1440 JUMP JUMPDEST PUSH1 0x20 PUSH1 0x40 MLOAD DUP1 DUP4 SUB DUP2 PUSH1 0x0 DUP8 DUP1 EXTCODESIZE ISZERO DUP1 ISZERO PUSH2 0x329 JUMPI PUSH1 0x0 DUP1 REVERT JUMPDEST POP GAS CALL ISZERO DUP1 ISZERO PUSH2 0x33D JUMPI RETURNDATASIZE PUSH1 0x0 DUP1 RETURNDATACOPY RETURNDATASIZE PUSH1 0x0 REVERT JUMPDEST POP POP POP POP PUSH1 0x40 MLOAD RETURNDATASIZE PUSH1 0x1F NOT PUSH1 0x1F DUP3 ADD AND DUP3 ADD DUP1 PUSH1 0x40 MSTORE POP DUP2 ADD SWAP1 PUSH2 0x361 SWAP2 SWAP1 PUSH2 0x13B1 JUMP JUMPDEST POP PUSH1 0x0 SLOAD PUSH1 0x40 MLOAD PUSH4 0x95EA7B3 PUSH1 0xE0 SHL DUP2 MSTORE PUSH1 0x1 PUSH1 0x1 PUSH1 0xA0 SHL SUB DUP9 DUP2 AND SWAP3 PUSH4 0x95EA7B3 SWAP3 PUSH2 0x398 SWAP3 SWAP1 SWAP2 AND SWAP1 PUSH1 0x0 NOT SWAP1 PUSH1 0x4 ADD PUSH2 0x1464 JUMP JUMPDEST PUSH1 0x20 PUSH1 0x40 MLOAD DUP1 DUP4 SUB DUP2 PUSH1 0x0 DUP8 DUP1 EXTCODESIZE ISZERO DUP1 ISZERO PUSH2 0x3B2 JUMPI PUSH1 0x0 DUP1 REVERT JUMPDEST POP GAS CALL ISZERO DUP1 ISZERO PUSH2 0x3C6 JUMPI RETURNDATASIZE PUSH1 0x0 DUP1 RETURNDATACOPY RETURNDATASIZE PUSH1 0x0 REVERT JUMPDEST POP POP POP POP PUSH1 0x40 MLOAD RETURNDATASIZE PUSH1 0x1F NOT PUSH1 0x1F DUP3 ADD AND DUP3 ADD DUP1 PUSH1 0x40 MSTORE POP DUP2 ADD SWAP1 PUSH2 0x3EA SWAP2 SWAP1 PUSH2 0x13B1 JUMP JUMPDEST POP PUSH1 0x60 PUSH1 0x1 PUSH1 0x1 PUSH1 0xA0 SHL SUB DUP7 AND PUSH2 0x4FD JUMPI DUP7 DUP3 PUSH1 0x0 DUP2 MLOAD DUP2 LT PUSH2 0x41D JUMPI PUSH4 0x4E487B71 PUSH1 0xE0 SHL PUSH1 0x0 MSTORE PUSH1 0x32 PUSH1 0x4 MSTORE PUSH1 0x24 PUSH1 0x0 REVERT JUMPDEST PUSH1 0x1 PUSH1 0x1 PUSH1 0xA0 SHL SUB SWAP3 DUP4 AND PUSH1 0x20 SWAP2 DUP3 MUL SWAP3 SWAP1 SWAP3 ADD ADD MSTORE PUSH1 0x1 DUP1 SLOAD DUP5 MLOAD SWAP3 AND SWAP2 DUP5 SWAP2 SWAP1 DUP2 LT PUSH2 0x45B JUMPI PUSH4 0x4E487B71 PUSH1 0xE0 SHL PUSH1 0x0 MSTORE PUSH1 0x32 PUSH1 0x4 MSTORE PUSH1 0x24 PUSH1 0x0 REVERT JUMPDEST PUSH1 0x1 PUSH1 0x1 PUSH1 0xA0 SHL SUB SWAP3 DUP4 AND PUSH1 0x20 SWAP2 DUP3 MUL SWAP3 SWAP1 SWAP3 ADD ADD MSTORE PUSH1 0x0 DUP1 SLOAD PUSH1 0x40 MLOAD PUSH4 0x18CBAFE5 PUSH1 0xE0 SHL DUP2 MSTORE SWAP3 AND SWAP2 PUSH4 0x18CBAFE5 SWAP2 PUSH2 0x4A0 SWAP2 DUP10 SWAP2 SWAP1 DUP8 SWAP1 CALLER SWAP1 DUP11 SWAP1 PUSH1 0x4 ADD PUSH2 0x1530 JUMP JUMPDEST PUSH1 0x0 PUSH1 0x40 MLOAD DUP1 DUP4 SUB DUP2 PUSH1 0x0 DUP8 DUP1 EXTCODESIZE ISZERO DUP1 ISZERO PUSH2 0x4BA JUMPI PUSH1 0x0 DUP1 REVERT JUMPDEST POP GAS CALL ISZERO DUP1 ISZERO PUSH2 0x4CE JUMPI RETURNDATASIZE PUSH1 0x0 DUP1 RETURNDATACOPY RETURNDATASIZE PUSH1 0x0 REVERT JUMPDEST POP POP POP POP PUSH1 0x40 MLOAD RETURNDATASIZE PUSH1 0x0 DUP3 RETURNDATACOPY PUSH1 0x1F RETURNDATASIZE SWAP1 DUP2 ADD PUSH1 0x1F NOT AND DUP3 ADD PUSH1 0x40 MSTORE PUSH2 0x4F6 SWAP2 SWAP1 DUP2 ADD SWAP1 PUSH2 0x1321 JUMP JUMPDEST SWAP1 POP PUSH2 0x5FF JUMP JUMPDEST DUP7 DUP3 PUSH1 0x0 DUP2 MLOAD DUP2 LT PUSH2 0x51F JUMPI PUSH4 0x4E487B71 PUSH1 0xE0 SHL PUSH1 0x0 MSTORE PUSH1 0x32 PUSH1 0x4 MSTORE PUSH1 0x24 PUSH1 0x0 REVERT JUMPDEST PUSH1 0x20 MUL PUSH1 0x20 ADD ADD SWAP1 PUSH1 0x1 PUSH1 0x1 PUSH1 0xA0 SHL SUB AND SWAP1 DUP2 PUSH1 0x1 PUSH1 0x1 PUSH1 0xA0 SHL SUB AND DUP2 MSTORE POP POP DUP6 DUP3 PUSH1 0x1 DUP2 MLOAD DUP2 LT PUSH2 0x561 JUMPI PUSH4 0x4E487B71 PUSH1 0xE0 SHL PUSH1 0x0 MSTORE PUSH1 0x32 PUSH1 0x4 MSTORE PUSH1 0x24 PUSH1 0x0 REVERT JUMPDEST PUSH1 0x1 PUSH1 0x1 PUSH1 0xA0 SHL SUB SWAP3 DUP4 AND PUSH1 0x20 SWAP2 DUP3 MUL SWAP3 SWAP1 SWAP3 ADD ADD MSTORE PUSH1 0x0 DUP1 SLOAD PUSH1 0x40 MLOAD PUSH4 0x38ED1739 PUSH1 0xE0 SHL DUP2 MSTORE SWAP3 AND SWAP2 PUSH4 0x38ED1739 SWAP2 PUSH2 0x5A6 SWAP2 DUP10 SWAP2 SWAP1 DUP8 SWAP1 CALLER SWAP1 DUP11 SWAP1 PUSH1 0x4 ADD PUSH2 0x1530 JUMP JUMPDEST PUSH1 0x0 PUSH1 0x40 MLOAD DUP1 DUP4 SUB DUP2 PUSH1 0x0 DUP8 DUP1 EXTCODESIZE ISZERO DUP1 ISZERO PUSH2 0x5C0 JUMPI PUSH1 0x0 DUP1 REVERT JUMPDEST POP GAS CALL ISZERO DUP1 ISZERO PUSH2 0x5D4 JUMPI RETURNDATASIZE PUSH1 0x0 DUP1 RETURNDATACOPY RETURNDATASIZE PUSH1 0x0 REVERT JUMPDEST POP POP POP POP PUSH1 0x40 MLOAD RETURNDATASIZE PUSH1 0x0 DUP3 RETURNDATACOPY PUSH1 0x1F RETURNDATASIZE SWAP1 DUP2 ADD PUSH1 0x1F NOT AND DUP3 ADD PUSH1 0x40 MSTORE PUSH2 0x5FC SWAP2 SWAP1 DUP2 ADD SWAP1 PUSH2 0x1321 JUMP JUMPDEST SWAP1 POP JUMPDEST PUSH32 0x56C1CC0EE18FD18B7913508D06A3A97BB1F19264A63FCBB16E884EB8C083B2CE DUP2 PUSH1 0x1 DUP2 MLOAD DUP2 LT PUSH2 0x641 JUMPI PUSH4 0x4E487B71 PUSH1 0xE0 SHL PUSH1 0x0 MSTORE PUSH1 0x32 PUSH1 0x4 MSTORE PUSH1 0x24 PUSH1 0x0 REVERT JUMPDEST PUSH1 0x20 MUL PUSH1 0x20 ADD ADD MLOAD PUSH1 0x40 MLOAD PUSH2 0x656 SWAP2 SWAP1 PUSH2 0x1527 JUMP JUMPDEST PUSH1 0x40 MLOAD DUP1 SWAP2 SUB SWAP1 LOG1 DUP1 PUSH1 0x1 DUP2 MLOAD DUP2 LT PUSH2 0x67F JUMPI PUSH4 0x4E487B71 PUSH1 0xE0 SHL PUSH1 0x0 MSTORE PUSH1 0x32 PUSH1 0x4 MSTORE PUSH1 0x24 PUSH1 0x0 REVERT JUMPDEST PUSH1 0x20 MUL PUSH1 0x20 ADD ADD MLOAD SWAP4 POP POP POP POP SWAP4 SWAP3 POP POP POP JUMP JUMPDEST PUSH1 0x4 SLOAD PUSH1 0x1 PUSH1 0x1 PUSH1 0xA0 SHL SUB AND DUP2 JUMP JUMPDEST PUSH1 0x0 CALLVALUE ISZERO PUSH2 0x6AE JUMPI CALLVALUE SWAP2 POP JUMPDEST PUSH1 0x40 DUP1 MLOAD PUSH1 0x0 DUP2 MSTORE PUSH1 0x20 DUP2 ADD SWAP2 DUP3 SWAP1 MSTORE PUSH1 0x2 SLOAD PUSH4 0x6CAE845 PUSH1 0xE2 SHL SWAP1 SWAP3 MSTORE SWAP1 PUSH1 0x1 SWAP1 PUSH1 0x1 PUSH1 0x1 PUSH1 0xA0 SHL SUB AND PUSH4 0x1B2BA114 PUSH3 0xF4240 DUP7 PUSH2 0x6F2 DUP10 DUP7 DUP9 PUSH1 0x24 DUP2 ADD PUSH2 0x14C2 JUMP JUMPDEST PUSH1 0x0 PUSH1 0x40 MLOAD DUP1 DUP4 SUB DUP2 DUP6 DUP10 DUP1 EXTCODESIZE ISZERO DUP1 ISZERO PUSH2 0x70B JUMPI PUSH1 0x0 DUP1 REVERT JUMPDEST POP DUP9 CALL ISZERO DUP1 ISZERO PUSH2 0x71F JUMPI RETURNDATASIZE PUSH1 0x0 DUP1 RETURNDATACOPY RETURNDATASIZE PUSH1 0x0 REVERT JUMPDEST POP POP PUSH1 0x3 SLOAD PUSH1 0x40 MLOAD PUSH4 0xE4161181 PUSH1 0xE0 SHL DUP2 MSTORE PUSH1 0x0 SWAP6 POP PUSH1 0x1 PUSH1 0x1 PUSH1 0xA0 SHL SUB SWAP1 SWAP2 AND SWAP4 POP PUSH4 0xE4161181 SWAP3 POP PUSH2 0x75A SWAP2 POP DUP5 SWAP1 DUP10 SWAP1 PUSH1 0x4 ADD PUSH2 0x1464 JUMP JUMPDEST PUSH1 0x20 PUSH1 0x40 MLOAD DUP1 DUP4 SUB DUP2 DUP7 DUP1 EXTCODESIZE ISZERO DUP1 ISZERO PUSH2 0x772 JUMPI PUSH1 0x0 DUP1 REVERT JUMPDEST POP GAS STATICCALL ISZERO DUP1 ISZERO PUSH2 0x786 JUMPI RETURNDATASIZE PUSH1 0x0 DUP1 RETURNDATACOPY RETURNDATASIZE PUSH1 0x0 REVERT JUMPDEST POP POP POP POP PUSH1 0x40 MLOAD RETURNDATASIZE PUSH1 0x1F NOT PUSH1 0x1F DUP3 ADD AND DUP3 ADD DUP1 PUSH1 0x40 MSTORE POP DUP2 ADD SWAP1 PUSH2 0x7AA SWAP2 SWAP1 PUSH2 0x13D1 JUMP JUMPDEST PUSH1 0x40 MLOAD PUSH4 0x95EA7B3 PUSH1 0xE0 SHL DUP2 MSTORE SWAP1 SWAP2 POP PUSH1 0x1 PUSH1 0x1 PUSH1 0xA0 SHL SUB DUP8 AND SWAP1 PUSH4 0x95EA7B3 SWAP1 PUSH2 0x7DD SWAP1 ADDRESS SWAP1 PUSH1 0x0 NOT SWAP1 PUSH1 0x4 ADD PUSH2 0x1464 JUMP JUMPDEST PUSH1 0x20 PUSH1 0x40 MLOAD DUP1 DUP4 SUB DUP2 PUSH1 0x0 DUP8 DUP1 EXTCODESIZE ISZERO DUP1 ISZERO PUSH2 0x7F7 JUMPI PUSH1 0x0 DUP1 REVERT JUMPDEST POP GAS CALL ISZERO DUP1 ISZERO PUSH2 0x80B JUMPI RETURNDATASIZE PUSH1 0x0 DUP1 RETURNDATACOPY RETURNDATASIZE PUSH1 0x0 REVERT JUMPDEST POP POP POP POP PUSH1 0x40 MLOAD RETURNDATASIZE PUSH1 0x1F NOT PUSH1 0x1F DUP3 ADD AND DUP3 ADD DUP1 PUSH1 0x40 MSTORE POP DUP2 ADD SWAP1 PUSH2 0x82F SWAP2 SWAP1 PUSH2 0x13B1 JUMP JUMPDEST POP PUSH1 0x40 MLOAD PUSH4 0x23B872DD PUSH1 0xE0 SHL DUP2 MSTORE PUSH1 0x1 PUSH1 0x1 PUSH1 0xA0 SHL SUB DUP8 AND SWAP1 PUSH4 0x23B872DD SWAP1 PUSH2 0x860 SWAP1 ADDRESS SWAP1 CALLER SWAP1 DUP7 SWAP1 PUSH1 0x4 ADD PUSH2 0x1440 JUMP JUMPDEST PUSH1 0x20 PUSH1 0x40 MLOAD DUP1 DUP4 SUB DUP2 PUSH1 0x0 DUP8 DUP1 EXTCODESIZE ISZERO DUP1 ISZERO PUSH2 0x87A JUMPI PUSH1 0x0 DUP1 REVERT JUMPDEST POP GAS CALL ISZERO DUP1 ISZERO PUSH2 0x88E JUMPI RETURNDATASIZE PUSH1 0x0 DUP1 RETURNDATACOPY RETURNDATASIZE PUSH1 0x0 REVERT JUMPDEST POP POP POP POP PUSH1 0x40 MLOAD RETURNDATASIZE PUSH1 0x1F NOT PUSH1 0x1F DUP3 ADD AND DUP3 ADD DUP1 PUSH1 0x40 MSTORE POP DUP2 ADD SWAP1 PUSH2 0x8B2 SWAP2 SWAP1 PUSH2 0x13B1 JUMP JUMPDEST POP SWAP6 SWAP5 POP POP POP POP POP JUMP JUMPDEST DUP1 MLOAD PUSH1 0x0 DUP3 DUP2 DUP4 PUSH2 0x8DD JUMPI PUSH4 0x4E487B71 PUSH1 0xE0 SHL PUSH1 0x0 MSTORE PUSH1 0x32 PUSH1 0x4 MSTORE PUSH1 0x24 PUSH1 0x0 REVERT JUMPDEST PUSH1 0x20 MUL PUSH1 0x20 ADD ADD MLOAD PUSH1 0x40 ADD MLOAD SWAP1 POP PUSH1 0x0 DUP4 PUSH1 0x0 DUP2 MLOAD DUP2 LT PUSH2 0x90E JUMPI PUSH4 0x4E487B71 PUSH1 0xE0 SHL PUSH1 0x0 MSTORE PUSH1 0x32 PUSH1 0x4 MSTORE PUSH1 0x24 PUSH1 0x0 REVERT JUMPDEST PUSH1 0x20 MUL PUSH1 0x20 ADD ADD MLOAD PUSH1 0x60 ADD MLOAD SWAP1 POP PUSH1 0x0 JUMPDEST PUSH2 0x92A PUSH1 0x1 DUP6 PUSH2 0x1611 JUMP JUMPDEST DUP2 LT ISZERO PUSH2 0xB1E JUMPI PUSH1 0x0 PUSH2 0x9C0 DUP7 DUP4 DUP2 MLOAD DUP2 LT PUSH2 0x956 JUMPI PUSH4 0x4E487B71 PUSH1 0xE0 SHL PUSH1 0x0 MSTORE PUSH1 0x32 PUSH1 0x4 MSTORE PUSH1 0x24 PUSH1 0x0 REVERT JUMPDEST PUSH1 0x20 MUL PUSH1 0x20 ADD ADD MLOAD PUSH1 0x0 ADD MLOAD DUP8 DUP5 DUP2 MLOAD DUP2 LT PUSH2 0x982 JUMPI PUSH4 0x4E487B71 PUSH1 0xE0 SHL PUSH1 0x0 MSTORE PUSH1 0x32 PUSH1 0x4 MSTORE PUSH1 0x24 PUSH1 0x0 REVERT JUMPDEST PUSH1 0x20 MUL PUSH1 0x20 ADD ADD MLOAD PUSH1 0x20 ADD MLOAD DUP7 DUP10 DUP7 DUP2 MLOAD DUP2 LT PUSH2 0x9AF JUMPI PUSH4 0x4E487B71 PUSH1 0xE0 SHL PUSH1 0x0 MSTORE PUSH1 0x32 PUSH1 0x4 MSTORE PUSH1 0x24 PUSH1 0x0 REVERT JUMPDEST PUSH1 0x20 MUL PUSH1 0x20 ADD ADD MLOAD PUSH1 0x80 ADD MLOAD PUSH2 0x251 JUMP JUMPDEST PUSH2 0x9CA SWAP1 DUP3 PUSH2 0x15BA JUMP JUMPDEST SWAP1 POP PUSH2 0xA2D DUP7 DUP4 DUP2 MLOAD DUP2 LT PUSH2 0x9EF JUMPI PUSH4 0x4E487B71 PUSH1 0xE0 SHL PUSH1 0x0 MSTORE PUSH1 0x32 PUSH1 0x4 MSTORE PUSH1 0x24 PUSH1 0x0 REVERT JUMPDEST PUSH1 0x20 MUL PUSH1 0x20 ADD ADD MLOAD PUSH1 0x0 ADD MLOAD DUP8 DUP5 DUP2 MLOAD DUP2 LT PUSH2 0xA1B JUMPI PUSH4 0x4E487B71 PUSH1 0xE0 SHL PUSH1 0x0 MSTORE PUSH1 0x32 PUSH1 0x4 MSTORE PUSH1 0x24 PUSH1 0x0 REVERT JUMPDEST PUSH1 0x20 MUL PUSH1 0x20 ADD ADD MLOAD PUSH1 0x20 ADD MLOAD DUP6 PUSH2 0x202 JUMP JUMPDEST PUSH2 0xA37 SWAP1 DUP3 PUSH2 0x15BA JUMP JUMPDEST SWAP1 POP DUP6 PUSH2 0xA45 DUP4 PUSH1 0x1 PUSH2 0x15BA JUMP JUMPDEST DUP2 MLOAD DUP2 LT PUSH2 0xA63 JUMPI PUSH4 0x4E487B71 PUSH1 0xE0 SHL PUSH1 0x0 MSTORE PUSH1 0x32 PUSH1 0x4 MSTORE PUSH1 0x24 PUSH1 0x0 REVERT JUMPDEST PUSH1 0x20 MUL PUSH1 0x20 ADD ADD MLOAD PUSH1 0x60 ADD MLOAD DUP7 DUP4 PUSH1 0x1 PUSH2 0xA7D SWAP2 SWAP1 PUSH2 0x15BA JUMP JUMPDEST DUP2 MLOAD DUP2 LT PUSH2 0xA9B JUMPI PUSH4 0x4E487B71 PUSH1 0xE0 SHL PUSH1 0x0 MSTORE PUSH1 0x32 PUSH1 0x4 MSTORE PUSH1 0x24 PUSH1 0x0 REVERT JUMPDEST PUSH1 0x20 MUL PUSH1 0x20 ADD ADD MLOAD PUSH1 0x40 ADD MLOAD PUSH2 0xAB1 SWAP2 SWAP1 PUSH2 0x15BA JUMP JUMPDEST DUP7 PUSH2 0xABD DUP5 PUSH1 0x1 PUSH2 0x15BA JUMP JUMPDEST DUP2 MLOAD DUP2 LT PUSH2 0xADB JUMPI PUSH4 0x4E487B71 PUSH1 0xE0 SHL PUSH1 0x0 MSTORE PUSH1 0x32 PUSH1 0x4 MSTORE PUSH1 0x24 PUSH1 0x0 REVERT JUMPDEST PUSH1 0x20 MUL PUSH1 0x20 ADD ADD MLOAD PUSH1 0x40 ADD MLOAD DUP3 PUSH2 0xAF2 SWAP2 SWAP1 PUSH2 0x15F2 JUMP JUMPDEST PUSH2 0xAFC SWAP2 SWAP1 PUSH2 0x15D2 JUMP JUMPDEST SWAP4 POP PUSH2 0xB08 DUP5 DUP3 PUSH2 0x1611 JUMP JUMPDEST SWAP3 POP POP DUP1 DUP1 PUSH2 0xB16 SWAP1 PUSH2 0x1628 JUMP JUMPDEST SWAP2 POP POP PUSH2 0x91F JUMP JUMPDEST POP PUSH2 0xBBD DUP5 PUSH2 0xB2E PUSH1 0x1 DUP7 PUSH2 0x1611 JUMP JUMPDEST DUP2 MLOAD DUP2 LT PUSH2 0xB4C JUMPI PUSH4 0x4E487B71 PUSH1 0xE0 SHL PUSH1 0x0 MSTORE PUSH1 0x32 PUSH1 0x4 MSTORE PUSH1 0x24 PUSH1 0x0 REVERT JUMPDEST PUSH1 0x20 MUL PUSH1 0x20 ADD ADD MLOAD PUSH1 0x0 ADD MLOAD DUP6 PUSH1 0x1 DUP7 PUSH2 0xB66 SWAP2 SWAP1 PUSH2 0x1611 JUMP JUMPDEST DUP2 MLOAD DUP2 LT PUSH2 0xB84 JUMPI PUSH4 0x4E487B71 PUSH1 0xE0 SHL PUSH1 0x0 MSTORE PUSH1 0x32 PUSH1 0x4 MSTORE PUSH1 0x24 PUSH1 0x0 REVERT JUMPDEST PUSH1 0x20 MUL PUSH1 0x20 ADD ADD MLOAD PUSH1 0x20 ADD MLOAD DUP5 DUP8 PUSH1 0x1 DUP9 PUSH2 0xB9F SWAP2 SWAP1 PUSH2 0x1611 JUMP JUMPDEST DUP2 MLOAD DUP2 LT PUSH2 0x9AF JUMPI PUSH4 0x4E487B71 PUSH1 0xE0 SHL PUSH1 0x0 MSTORE PUSH1 0x32 PUSH1 0x4 MSTORE PUSH1 0x24 PUSH1 0x0 REVERT JUMPDEST POP PUSH2 0xC35 DUP5 PUSH2 0xBCD PUSH1 0x1 DUP7 PUSH2 0x1611 JUMP JUMPDEST DUP2 MLOAD DUP2 LT PUSH2 0xBEB JUMPI PUSH4 0x4E487B71 PUSH1 0xE0 SHL PUSH1 0x0 MSTORE PUSH1 0x32 PUSH1 0x4 MSTORE PUSH1 0x24 PUSH1 0x0 REVERT JUMPDEST PUSH1 0x20 MUL PUSH1 0x20 ADD ADD MLOAD PUSH1 0x0 ADD MLOAD DUP6 PUSH1 0x1 DUP7 PUSH2 0xC05 SWAP2 SWAP1 PUSH2 0x1611 JUMP JUMPDEST DUP2 MLOAD DUP2 LT PUSH2 0xC23 JUMPI PUSH4 0x4E487B71 PUSH1 0xE0 SHL PUSH1 0x0 MSTORE PUSH1 0x32 PUSH1 0x4 MSTORE PUSH1 0x24 PUSH1 0x0 REVERT JUMPDEST PUSH1 0x20 MUL PUSH1 0x20 ADD ADD MLOAD PUSH1 0x20 ADD MLOAD DUP4 PUSH2 0x202 JUMP JUMPDEST POP POP POP POP POP JUMP JUMPDEST PUSH1 0x2 SLOAD PUSH1 0x1 PUSH1 0x1 PUSH1 0xA0 SHL SUB AND DUP2 JUMP JUMPDEST PUSH1 0x0 CALLVALUE ISZERO PUSH2 0xC57 JUMPI CALLVALUE SWAP2 POP JUMPDEST PUSH1 0x0 PUSH2 0xC65 TIMESTAMP PUSH2 0x12C PUSH2 0x15BA JUMP JUMPDEST PUSH1 0x40 DUP1 MLOAD PUSH1 0x2 DUP1 DUP3 MSTORE PUSH1 0x60 DUP3 ADD DUP4 MSTORE SWAP3 SWAP4 POP PUSH1 0x0 SWAP3 SWAP1 SWAP2 PUSH1 0x20 DUP4 ADD SWAP1 DUP1 CALLDATASIZE DUP4 CALLDATACOPY POP POP PUSH1 0x1 SLOAD DUP3 MLOAD SWAP3 SWAP4 POP PUSH1 0x1 PUSH1 0x1 PUSH1 0xA0 SHL SUB AND SWAP2 DUP4 SWAP2 POP PUSH1 0x0 SWAP1 PUSH2 0xCB9 JUMPI PUSH4 0x4E487B71 PUSH1 0xE0 SHL PUSH1 0x0 MSTORE PUSH1 0x32 PUSH1 0x4 MSTORE PUSH1 0x24 PUSH1 0x0 REVERT JUMPDEST PUSH1 0x20 MUL PUSH1 0x20 ADD ADD SWAP1 PUSH1 0x1 PUSH1 0x1 PUSH1 0xA0 SHL SUB AND SWAP1 DUP2 PUSH1 0x1 PUSH1 0x1 PUSH1 0xA0 SHL SUB AND DUP2 MSTORE POP POP DUP5 DUP2 PUSH1 0x1 DUP2 MLOAD DUP2 LT PUSH2 0xCFB JUMPI PUSH4 0x4E487B71 PUSH1 0xE0 SHL PUSH1 0x0 MSTORE PUSH1 0x32 PUSH1 0x4 MSTORE PUSH1 0x24 PUSH1 0x0 REVERT JUMPDEST PUSH1 0x1 PUSH1 0x1 PUSH1 0xA0 SHL SUB SWAP3 DUP4 AND PUSH1 0x20 SWAP2 DUP3 MUL SWAP3 SWAP1 SWAP3 ADD ADD MSTORE PUSH1 0x0 DUP1 SLOAD PUSH1 0x40 MLOAD PUSH4 0x7FF36AB5 PUSH1 0xE0 SHL DUP2 MSTORE PUSH1 0x60 SWAP4 SWAP2 SWAP1 SWAP2 AND SWAP2 PUSH4 0x7FF36AB5 SWAP2 DUP9 SWAP2 PUSH2 0xD44 SWAP2 DUP8 SWAP1 CALLER SWAP1 DUP11 SWAP1 PUSH1 0x4 ADD PUSH2 0x14F2 JUMP JUMPDEST PUSH1 0x0 PUSH1 0x40 MLOAD DUP1 DUP4 SUB DUP2 DUP6 DUP9 DUP1 EXTCODESIZE ISZERO DUP1 ISZERO PUSH2 0xD5D JUMPI PUSH1 0x0 DUP1 REVERT JUMPDEST POP GAS CALL ISZERO DUP1 ISZERO PUSH2 0xD71 JUMPI RETURNDATASIZE PUSH1 0x0 DUP1 RETURNDATACOPY RETURNDATASIZE PUSH1 0x0 REVERT JUMPDEST POP POP POP POP POP PUSH1 0x40 MLOAD RETURNDATASIZE PUSH1 0x0 DUP3 RETURNDATACOPY PUSH1 0x1F RETURNDATASIZE SWAP1 DUP2 ADD PUSH1 0x1F NOT AND DUP3 ADD PUSH1 0x40 MSTORE PUSH2 0xD9A SWAP2 SWAP1 DUP2 ADD SWAP1 PUSH2 0x1321 JUMP JUMPDEST SWAP1 POP PUSH32 0x56C1CC0EE18FD18B7913508D06A3A97BB1F19264A63FCBB16E884EB8C083B2CE DUP2 PUSH1 0x1 DUP2 MLOAD DUP2 LT PUSH2 0xDDE JUMPI PUSH4 0x4E487B71 PUSH1 0xE0 SHL PUSH1 0x0 MSTORE PUSH1 0x32 PUSH1 0x4 MSTORE PUSH1 0x24 PUSH1 0x0 REVERT JUMPDEST PUSH1 0x20 MUL PUSH1 0x20 ADD ADD MLOAD PUSH1 0x40 MLOAD PUSH2 0xDF3 SWAP2 SWAP1 PUSH2 0x1527 JUMP JUMPDEST PUSH1 0x40 MLOAD DUP1 SWAP2 SUB SWAP1 LOG1 DUP1 PUSH1 0x1 DUP2 MLOAD DUP2 LT PUSH2 0xE1C JUMPI PUSH4 0x4E487B71 PUSH1 0xE0 SHL PUSH1 0x0 MSTORE PUSH1 0x32 PUSH1 0x4 MSTORE PUSH1 0x24 PUSH1 0x0 REVERT JUMPDEST PUSH1 0x20 MUL PUSH1 0x20 ADD ADD MLOAD SWAP4 POP POP POP POP SWAP3 SWAP2 POP POP JUMP JUMPDEST PUSH1 0x40 DUP1 MLOAD PUSH1 0x0 DUP1 DUP3 MSTORE PUSH1 0x20 DUP3 ADD SWAP3 DUP4 SWAP1 MSTORE PUSH4 0x23B872DD PUSH1 0xE0 SHL SWAP1 SWAP3 MSTORE PUSH1 0x1 PUSH1 0x1 PUSH1 0xA0 SHL SUB DUP6 AND PUSH4 0x23B872DD PUSH2 0xE69 CALLER ADDRESS DUP8 PUSH1 0x24 DUP8 ADD PUSH2 0x1440 JUMP JUMPDEST PUSH1 0x20 PUSH1 0x40 MLOAD DUP1 DUP4 SUB DUP2 PUSH1 0x0 DUP8 DUP1 EXTCODESIZE ISZERO DUP1 ISZERO PUSH2 0xE83 JUMPI PUSH1 0x0 DUP1 REVERT JUMPDEST POP GAS CALL ISZERO DUP1 ISZERO PUSH2 0xE97 JUMPI RETURNDATASIZE PUSH1 0x0 DUP1 RETURNDATACOPY RETURNDATASIZE PUSH1 0x0 REVERT JUMPDEST POP POP POP POP PUSH1 0x40 MLOAD RETURNDATASIZE PUSH1 0x1F NOT PUSH1 0x1F DUP3 ADD AND DUP3 ADD DUP1 PUSH1 0x40 MSTORE POP DUP2 ADD SWAP1 PUSH2 0xEBB SWAP2 SWAP1 PUSH2 0x13B1 JUMP JUMPDEST POP PUSH1 0x2 SLOAD PUSH1 0x40 MLOAD PUSH4 0x95EA7B3 PUSH1 0xE0 SHL DUP2 MSTORE PUSH1 0x1 PUSH1 0x1 PUSH1 0xA0 SHL SUB DUP8 DUP2 AND SWAP3 PUSH4 0x95EA7B3 SWAP3 PUSH2 0xEF2 SWAP3 SWAP1 SWAP2 AND SWAP1 PUSH1 0x0 NOT SWAP1 PUSH1 0x4 ADD PUSH2 0x1464 JUMP JUMPDEST PUSH1 0x20 PUSH1 0x40 MLOAD DUP1 DUP4 SUB DUP2 PUSH1 0x0 DUP8 DUP1 EXTCODESIZE ISZERO DUP1 ISZERO PUSH2 0xF0C JUMPI PUSH1 0x0 DUP1 REVERT JUMPDEST POP GAS CALL ISZERO DUP1 ISZERO PUSH2 0xF20 JUMPI RETURNDATASIZE PUSH1 0x0 DUP1 RETURNDATACOPY RETURNDATASIZE PUSH1 0x0 REVERT JUMPDEST POP POP POP POP PUSH1 0x40 MLOAD RETURNDATASIZE PUSH1 0x1F NOT PUSH1 0x1F DUP3 ADD AND DUP3 ADD DUP1 PUSH1 0x40 MSTORE POP DUP2 ADD SWAP1 PUSH2 0xF44 SWAP2 SWAP1 PUSH2 0x13B1 JUMP JUMPDEST POP PUSH1 0x2 SLOAD PUSH1 0x40 MLOAD PUSH4 0x52F28C17 PUSH1 0xE0 SHL DUP2 MSTORE PUSH1 0x1 SWAP2 PUSH1 0x1 PUSH1 0x1 PUSH1 0xA0 SHL SUB AND SWAP1 PUSH4 0x52F28C17 SWAP1 PUSH2 0xF7E SWAP1 DUP10 SWAP1 DUP9 SWAP1 DUP11 SWAP1 DUP8 SWAP1 DUP10 SWAP1 PUSH1 0x4 ADD PUSH2 0x147D JUMP JUMPDEST PUSH1 0x0 PUSH1 0x40 MLOAD DUP1 DUP4 SUB DUP2 PUSH1 0x0 DUP8 DUP1 EXTCODESIZE ISZERO DUP1 ISZERO PUSH2 0xF98 JUMPI PUSH1 0x0 DUP1 REVERT JUMPDEST POP GAS CALL ISZERO DUP1 ISZERO PUSH2 0xFAC JUMPI RETURNDATASIZE PUSH1 0x0 DUP1 RETURNDATACOPY RETURNDATASIZE PUSH1 0x0 REVERT JUMPDEST POP POP PUSH1 0x3 SLOAD PUSH1 0x40 MLOAD PUSH4 0xE4161181 PUSH1 0xE0 SHL DUP2 MSTORE PUSH1 0x0 SWAP4 POP PUSH1 0x1 PUSH1 0x1 PUSH1 0xA0 SHL SUB SWAP1 SWAP2 AND SWAP2 POP PUSH4 0xE4161181 SWAP1 PUSH2 0xFE5 SWAP1 DUP11 SWAP1 DUP10 SWAP1 PUSH1 0x4 ADD PUSH2 0x1464 JUMP JUMPDEST PUSH1 0x20 PUSH1 0x40 MLOAD DUP1 DUP4 SUB DUP2 DUP7 DUP1 EXTCODESIZE ISZERO DUP1 ISZERO PUSH2 0xFFD JUMPI PUSH1 0x0 DUP1 REVERT JUMPDEST POP GAS STATICCALL ISZERO DUP1 ISZERO PUSH2 0x1011 JUMPI RETURNDATASIZE PUSH1 0x0 DUP1 RETURNDATACOPY RETURNDATASIZE PUSH1 0x0 REVERT JUMPDEST POP POP POP POP PUSH1 0x40 MLOAD RETURNDATASIZE PUSH1 0x1F NOT PUSH1 0x1F DUP3 ADD AND DUP3 ADD DUP1 PUSH1 0x40 MSTORE POP DUP2 ADD SWAP1 PUSH2 0x1035 SWAP2 SWAP1 PUSH2 0x13D1 JUMP JUMPDEST PUSH1 0x40 MLOAD PUSH4 0x95EA7B3 PUSH1 0xE0 SHL DUP2 MSTORE SWAP1 SWAP2 POP PUSH1 0x1 PUSH1 0x1 PUSH1 0xA0 SHL SUB DUP8 AND SWAP1 PUSH4 0x95EA7B3 SWAP1 PUSH2 0x1068 SWAP1 ADDRESS SWAP1 PUSH1 0x0 NOT SWAP1 PUSH1 0x4 ADD PUSH2 0x1464 JUMP JUMPDEST PUSH1 0x20 PUSH1 0x40 MLOAD DUP1 DUP4 SUB DUP2 PUSH1 0x0 DUP8 DUP1 EXTCODESIZE ISZERO DUP1 ISZERO PUSH2 0x1082 JUMPI PUSH1 0x0 DUP1 REVERT JUMPDEST POP GAS CALL ISZERO DUP1 ISZERO PUSH2 0x1096 JUMPI RETURNDATASIZE PUSH1 0x0 DUP1 RETURNDATACOPY RETURNDATASIZE PUSH1 0x0 REVERT JUMPDEST POP POP POP POP PUSH1 0x40 MLOAD RETURNDATASIZE PUSH1 0x1F NOT PUSH1 0x1F DUP3 ADD AND DUP3 ADD DUP1 PUSH1 0x40 MSTORE POP DUP2 ADD SWAP1 PUSH2 0x10BA SWAP2 SWAP1 PUSH2 0x13B1 JUMP JUMPDEST POP PUSH1 0x40 MLOAD PUSH4 0x23B872DD PUSH1 0xE0 SHL DUP2 MSTORE PUSH1 0x1 PUSH1 0x1 PUSH1 0xA0 SHL SUB DUP8 AND SWAP1 PUSH4 0x23B872DD SWAP1 PUSH2 0x10EB SWAP1 ADDRESS SWAP1 CALLER SWAP1 DUP7 SWAP1 PUSH1 0x4 ADD PUSH2 0x1440 JUMP JUMPDEST PUSH1 0x20 PUSH1 0x40 MLOAD DUP1 DUP4 SUB DUP2 PUSH1 0x0 DUP8 DUP1 EXTCODESIZE ISZERO DUP1 ISZERO PUSH2 0x1105 JUMPI PUSH1 0x0 DUP1 REVERT JUMPDEST POP GAS CALL ISZERO DUP1 ISZERO PUSH2 0x1119 JUMPI RETURNDATASIZE PUSH1 0x0 DUP1 RETURNDATACOPY RETURNDATASIZE PUSH1 0x0 REVERT JUMPDEST POP POP POP POP PUSH1 0x40 MLOAD RETURNDATASIZE PUSH1 0x1F NOT PUSH1 0x1F DUP3 ADD AND DUP3 ADD DUP1 PUSH1 0x40 MSTORE POP DUP2 ADD SWAP1 PUSH2 0x113D SWAP2 SWAP1 PUSH2 0x13B1 JUMP JUMPDEST POP SWAP7 SWAP6 POP POP POP POP POP POP JUMP JUMPDEST DUP1 CALLDATALOAD PUSH1 0x1 PUSH1 0x1 PUSH1 0xA0 SHL SUB DUP2 AND DUP2 EQ PUSH2 0x115F JUMPI PUSH1 0x0 DUP1 REVERT JUMPDEST SWAP2 SWAP1 POP JUMP JUMPDEST PUSH1 0x0 DUP1 PUSH1 0x0 PUSH1 0x60 DUP5 DUP7 SUB SLT ISZERO PUSH2 0x1178 JUMPI DUP3 DUP4 REVERT JUMPDEST PUSH2 0x1181 DUP5 PUSH2 0x1148 JUMP JUMPDEST SWAP3 POP PUSH2 0x118F PUSH1 0x20 DUP6 ADD PUSH2 0x1148 JUMP JUMPDEST SWAP2 POP PUSH1 0x40 DUP5 ADD CALLDATALOAD SWAP1 POP SWAP3 POP SWAP3 POP SWAP3 JUMP JUMPDEST PUSH1 0x0 DUP1 PUSH1 0x0 DUP1 PUSH1 0x80 DUP6 DUP8 SUB SLT ISZERO PUSH2 0x11B4 JUMPI DUP1 DUP2 REVERT JUMPDEST PUSH2 0x11BD DUP6 PUSH2 0x1148 JUMP JUMPDEST SWAP4 POP PUSH2 0x11CB PUSH1 0x20 DUP7 ADD PUSH2 0x1148 JUMP JUMPDEST SWAP3 POP PUSH1 0x40 DUP6 ADD CALLDATALOAD SWAP2 POP PUSH2 0x11E0 PUSH1 0x60 DUP7 ADD PUSH2 0x1148 JUMP JUMPDEST SWAP1 POP SWAP3 SWAP6 SWAP2 SWAP5 POP SWAP3 POP JUMP JUMPDEST PUSH1 0x0 DUP1 PUSH1 0x40 DUP4 DUP6 SUB SLT ISZERO PUSH2 0x11FD JUMPI DUP2 DUP3 REVERT JUMPDEST PUSH2 0x1206 DUP4 PUSH2 0x1148 JUMP JUMPDEST SWAP5 PUSH1 0x20 SWAP4 SWAP1 SWAP4 ADD CALLDATALOAD SWAP4 POP POP POP JUMP JUMPDEST PUSH1 0x0 PUSH1 0x20 DUP1 DUP4 DUP6 SUB SLT ISZERO PUSH2 0x1226 JUMPI DUP2 DUP3 REVERT JUMPDEST DUP3 CALLDATALOAD PUSH8 0xFFFFFFFFFFFFFFFF DUP1 DUP3 GT ISZERO PUSH2 0x123D JUMPI DUP4 DUP5 REVERT JUMPDEST DUP2 DUP6 ADD SWAP2 POP DUP6 PUSH1 0x1F DUP4 ADD SLT PUSH2 0x1250 JUMPI DUP4 DUP5 REVERT JUMPDEST DUP2 CALLDATALOAD PUSH2 0x1263 PUSH2 0x125E DUP3 PUSH2 0x1596 JUMP JUMPDEST PUSH2 0x156C JUMP JUMPDEST DUP2 DUP2 MSTORE DUP5 DUP2 ADD SWAP1 DUP5 DUP7 ADD PUSH1 0xA0 DUP1 DUP6 MUL DUP8 ADD DUP9 ADD DUP12 LT ISZERO PUSH2 0x1281 JUMPI DUP9 DUP10 REVERT JUMPDEST DUP9 SWAP7 POP JUMPDEST DUP5 DUP8 LT ISZERO PUSH2 0x1312 JUMPI DUP1 DUP3 DUP13 SUB SLT ISZERO PUSH2 0x129B JUMPI DUP9 DUP10 REVERT JUMPDEST PUSH1 0x40 DUP1 MLOAD DUP3 DUP2 ADD DUP2 DUP2 LT DUP10 DUP3 GT OR ISZERO PUSH2 0x12B6 JUMPI PUSH2 0x12B6 PUSH2 0x1659 JUMP JUMPDEST DUP3 MSTORE PUSH2 0x12C1 DUP5 PUSH2 0x1148 JUMP JUMPDEST DUP2 MSTORE PUSH2 0x12CE DUP11 DUP6 ADD PUSH2 0x1148 JUMP JUMPDEST DUP11 DUP3 ADD MSTORE DUP2 DUP5 ADD CALLDATALOAD DUP3 DUP3 ADD MSTORE PUSH1 0x60 SWAP2 POP DUP2 DUP5 ADD CALLDATALOAD DUP3 DUP3 ADD MSTORE PUSH1 0x80 SWAP2 POP PUSH2 0x12F5 DUP3 DUP6 ADD PUSH2 0x1148 JUMP JUMPDEST SWAP2 DUP2 ADD SWAP2 SWAP1 SWAP2 MSTORE DUP5 MSTORE PUSH1 0x1 SWAP7 SWAP1 SWAP7 ADD SWAP6 SWAP3 DUP8 ADD SWAP3 SWAP1 DUP2 ADD SWAP1 PUSH2 0x1285 JUMP JUMPDEST POP SWAP1 SWAP10 SWAP9 POP POP POP POP POP POP POP POP POP JUMP JUMPDEST PUSH1 0x0 PUSH1 0x20 DUP1 DUP4 DUP6 SUB SLT ISZERO PUSH2 0x1333 JUMPI DUP2 DUP3 REVERT JUMPDEST DUP3 MLOAD PUSH8 0xFFFFFFFFFFFFFFFF DUP2 GT ISZERO PUSH2 0x1349 JUMPI DUP3 DUP4 REVERT JUMPDEST DUP4 ADD PUSH1 0x1F DUP2 ADD DUP6 SGT PUSH2 0x1359 JUMPI DUP3 DUP4 REVERT JUMPDEST DUP1 MLOAD PUSH2 0x1367 PUSH2 0x125E DUP3 PUSH2 0x1596 JUMP JUMPDEST DUP2 DUP2 MSTORE DUP4 DUP2 ADD SWAP1 DUP4 DUP6 ADD DUP6 DUP5 MUL DUP6 ADD DUP7 ADD DUP10 LT ISZERO PUSH2 0x1383 JUMPI DUP7 DUP8 REVERT JUMPDEST DUP7 SWAP5 POP JUMPDEST DUP4 DUP6 LT ISZERO PUSH2 0x13A5 JUMPI DUP1 MLOAD DUP4 MSTORE PUSH1 0x1 SWAP5 SWAP1 SWAP5 ADD SWAP4 SWAP2 DUP6 ADD SWAP2 DUP6 ADD PUSH2 0x1387 JUMP JUMPDEST POP SWAP8 SWAP7 POP POP POP POP POP POP POP JUMP JUMPDEST PUSH1 0x0 PUSH1 0x20 DUP3 DUP5 SUB SLT ISZERO PUSH2 0x13C2 JUMPI DUP1 DUP2 REVERT JUMPDEST DUP2 MLOAD DUP1 ISZERO ISZERO DUP2 EQ PUSH2 0x23B JUMPI DUP2 DUP3 REVERT JUMPDEST PUSH1 0x0 PUSH1 0x20 DUP3 DUP5 SUB SLT ISZERO PUSH2 0x13E2 JUMPI DUP1 DUP2 REVERT JUMPDEST POP MLOAD SWAP2 SWAP1 POP JUMP JUMPDEST PUSH1 0x0 DUP2 MLOAD DUP1 DUP5 MSTORE PUSH1 0x20 DUP1 DUP6 ADD SWAP5 POP DUP1 DUP5 ADD DUP4 JUMPDEST DUP4 DUP2 LT ISZERO PUSH2 0x1421 JUMPI DUP2 MLOAD PUSH1 0x1 PUSH1 0x1 PUSH1 0xA0 SHL SUB AND DUP8 MSTORE SWAP6 DUP3 ADD SWAP6 SWAP1 DUP3 ADD SWAP1 PUSH1 0x1 ADD PUSH2 0x13FC JUMP JUMPDEST POP SWAP5 SWAP6 SWAP5 POP POP POP POP POP JUMP JUMPDEST PUSH1 0x1 PUSH1 0x1 PUSH1 0xA0 SHL SUB SWAP2 SWAP1 SWAP2 AND DUP2 MSTORE PUSH1 0x20 ADD SWAP1 JUMP JUMPDEST PUSH1 0x1 PUSH1 0x1 PUSH1 0xA0 SHL SUB SWAP4 DUP5 AND DUP2 MSTORE SWAP2 SWAP1 SWAP3 AND PUSH1 0x20 DUP3 ADD MSTORE PUSH1 0x40 DUP2 ADD SWAP2 SWAP1 SWAP2 MSTORE PUSH1 0x60 ADD SWAP1 JUMP JUMPDEST PUSH1 0x1 PUSH1 0x1 PUSH1 0xA0 SHL SUB SWAP3 SWAP1 SWAP3 AND DUP3 MSTORE PUSH1 0x20 DUP3 ADD MSTORE PUSH1 0x40 ADD SWAP1 JUMP JUMPDEST PUSH1 0x1 PUSH1 0x1 PUSH1 0xA0 SHL SUB DUP7 DUP2 AND DUP3 MSTORE PUSH1 0x20 DUP3 ADD DUP7 SWAP1 MSTORE DUP5 AND PUSH1 0x40 DUP3 ADD MSTORE PUSH1 0x60 DUP2 ADD DUP4 SWAP1 MSTORE PUSH1 0xA0 PUSH1 0x80 DUP3 ADD DUP2 SWAP1 MSTORE PUSH1 0x0 SWAP1 PUSH2 0x14B7 SWAP1 DUP4 ADD DUP5 PUSH2 0x13E9 JUMP JUMPDEST SWAP8 SWAP7 POP POP POP POP POP POP POP JUMP JUMPDEST PUSH1 0x0 PUSH1 0x1 DUP1 PUSH1 0xA0 SHL SUB DUP6 AND DUP3 MSTORE DUP4 PUSH1 0x20 DUP4 ADD MSTORE PUSH1 0x60 PUSH1 0x40 DUP4 ADD MSTORE PUSH2 0x14E9 PUSH1 0x60 DUP4 ADD DUP5 PUSH2 0x13E9 JUMP JUMPDEST SWAP6 SWAP5 POP POP POP POP POP JUMP JUMPDEST PUSH1 0x0 DUP6 DUP3 MSTORE PUSH1 0x80 PUSH1 0x20 DUP4 ADD MSTORE PUSH2 0x150B PUSH1 0x80 DUP4 ADD DUP7 PUSH2 0x13E9 JUMP JUMPDEST PUSH1 0x1 PUSH1 0x1 PUSH1 0xA0 SHL SUB SWAP5 SWAP1 SWAP5 AND PUSH1 0x40 DUP4 ADD MSTORE POP PUSH1 0x60 ADD MSTORE SWAP3 SWAP2 POP POP JUMP JUMPDEST SWAP1 DUP2 MSTORE PUSH1 0x20 ADD SWAP1 JUMP JUMPDEST PUSH1 0x0 DUP7 DUP3 MSTORE DUP6 PUSH1 0x20 DUP4 ADD MSTORE PUSH1 0xA0 PUSH1 0x40 DUP4 ADD MSTORE PUSH2 0x154F PUSH1 0xA0 DUP4 ADD DUP7 PUSH2 0x13E9 JUMP JUMPDEST PUSH1 0x1 PUSH1 0x1 PUSH1 0xA0 SHL SUB SWAP5 SWAP1 SWAP5 AND PUSH1 0x60 DUP4 ADD MSTORE POP PUSH1 0x80 ADD MSTORE SWAP4 SWAP3 POP POP POP JUMP JUMPDEST PUSH1 0x40 MLOAD DUP2 DUP2 ADD PUSH8 0xFFFFFFFFFFFFFFFF DUP2 GT DUP3 DUP3 LT OR ISZERO PUSH2 0x158E JUMPI PUSH2 0x158E PUSH2 0x1659 JUMP JUMPDEST PUSH1 0x40 MSTORE SWAP2 SWAP1 POP JUMP JUMPDEST PUSH1 0x0 PUSH8 0xFFFFFFFFFFFFFFFF DUP3 GT ISZERO PUSH2 0x15B0 JUMPI PUSH2 0x15B0 PUSH2 0x1659 JUMP JUMPDEST POP PUSH1 0x20 SWAP1 DUP2 MUL ADD SWAP1 JUMP JUMPDEST PUSH1 0x0 DUP3 NOT DUP3 GT ISZERO PUSH2 0x15CD JUMPI PUSH2 0x15CD PUSH2 0x1643 JUMP JUMPDEST POP ADD SWAP1 JUMP JUMPDEST PUSH1 0x0 DUP3 PUSH2 0x15ED JUMPI PUSH4 0x4E487B71 PUSH1 0xE0 SHL DUP2 MSTORE PUSH1 0x12 PUSH1 0x4 MSTORE PUSH1 0x24 DUP2 REVERT JUMPDEST POP DIV SWAP1 JUMP JUMPDEST PUSH1 0x0 DUP2 PUSH1 0x0 NOT DIV DUP4 GT DUP3 ISZERO ISZERO AND ISZERO PUSH2 0x160C JUMPI PUSH2 0x160C PUSH2 0x1643 JUMP JUMPDEST POP MUL SWAP1 JUMP JUMPDEST PUSH1 0x0 DUP3 DUP3 LT ISZERO PUSH2 0x1623 JUMPI PUSH2 0x1623 PUSH2 0x1643 JUMP JUMPDEST POP SUB SWAP1 JUMP JUMPDEST PUSH1 0x0 PUSH1 0x0 NOT DUP3 EQ ISZERO PUSH2 0x163C JUMPI PUSH2 0x163C PUSH2 0x1643 JUMP JUMPDEST POP PUSH1 0x1 ADD SWAP1 JUMP JUMPDEST PUSH4 0x4E487B71 PUSH1 0xE0 SHL PUSH1 0x0 MSTORE PUSH1 0x11 PUSH1 0x4 MSTORE PUSH1 0x24 PUSH1 0x0 REVERT JUMPDEST PUSH4 0x4E487B71 PUSH1 0xE0 SHL PUSH1 0x0 MSTORE PUSH1 0x41 PUSH1 0x4 MSTORE PUSH1 0x24 PUSH1 0x0 REVERT INVALID LOG2 PUSH5 0x6970667358 0x22 SLT KECCAK256 SLT 0x2D PUSH21 0xA9739699D9842DBF57D408FF369B66E777D12C55E0 LOG3 CALLVALUE PUSH18 0x1E55B4044D64736F6C634300080000330000 "
		},
		"gasEstimates": {
			"creation": {
				"codeDepositCost": "1159400",
				"executionCost": "104524",
				"totalCost": "1263924"
			},
			"external": {
				"WKLAY()": "1093",
				"defSwapKct(address,address,uint256)": "infinite",
				"defSwapKlay(address,uint256)": "infinite",
				"definixRouter()": "1137",
				"klayswapFactory()": "1136",
				"kslp()": "1071",
				"kspSwapKct(address,address,uint256)": "infinite",
				"kspSwapKlay(address,uint256)": "infinite",
				"main((address,address,uint256,uint256,address)[])": "infinite",
				"owner()": "1070",
				"swapDefinix(address,address,uint256)": "infinite",
				"swapKlayswap(address,address,uint256,address)": "infinite"
			}
		},
		"methodIdentifiers": {
			"WKLAY()": "249502d7",
			"defSwapKct(address,address,uint256)": "76e6b7d0",
			"defSwapKlay(address,uint256)": "f02ccfa7",
			"definixRouter()": "4136195f",
			"klayswapFactory()": "eef44297",
			"kslp()": "160ce6e9",
			"kspSwapKct(address,address,uint256)": "f0c55b58",
			"kspSwapKlay(address,uint256)": "9ac1ef38",
			"main((address,address,uint256,uint256,address)[])": "a5cfb6a3",
			"owner()": "8da5cb5b",
			"swapDefinix(address,address,uint256)": "31cf6c62",
			"swapKlayswap(address,address,uint256,address)": "5b0f0e35"
		}
	},
	"abi": [
		{
			"inputs": [],
			"stateMutability": "nonpayable",
			"type": "constructor"
		},
		{
			"anonymous": false,
			"inputs": [
				{
					"indexed": false,
					"internalType": "uint256",
					"name": "allowance",
					"type": "uint256"
				}
			],
			"name": "allowed",
			"type": "event"
		},
		{
			"anonymous": false,
			"inputs": [
				{
					"indexed": false,
					"internalType": "uint256",
					"name": "amountB",
					"type": "uint256"
				}
			],
			"name": "swapped",
			"type": "event"
		},
		{
			"inputs": [],
			"name": "WKLAY",
			"outputs": [
				{
					"internalType": "address",
					"name": "",
					"type": "address"
				}
			],
			"stateMutability": "view",
			"type": "function"
		},
		{
			"inputs": [
				{
					"internalType": "address",
					"name": "tokenA",
					"type": "address"
				},
				{
					"internalType": "address",
					"name": "tokenB",
					"type": "address"
				},
				{
					"internalType": "uint256",
					"name": "amountA",
					"type": "uint256"
				}
			],
			"name": "defSwapKct",
			"outputs": [
				{
					"internalType": "uint256",
					"name": "amountB",
					"type": "uint256"
				}
			],
			"stateMutability": "nonpayable",
			"type": "function"
		},
		{
			"inputs": [
				{
					"internalType": "address",
					"name": "tokenB",
					"type": "address"
				},
				{
					"internalType": "uint256",
					"name": "amountA",
					"type": "uint256"
				}
			],
			"name": "defSwapKlay",
			"outputs": [
				{
					"internalType": "uint256",
					"name": "amountB",
					"type": "uint256"
				}
			],
			"stateMutability": "payable",
			"type": "function"
		},
		{
			"inputs": [],
			"name": "definixRouter",
			"outputs": [
				{
					"internalType": "address",
					"name": "",
					"type": "address"
				}
			],
			"stateMutability": "view",
			"type": "function"
		},
		{
			"inputs": [],
			"name": "klayswapFactory",
			"outputs": [
				{
					"internalType": "address",
					"name": "",
					"type": "address"
				}
			],
			"stateMutability": "view",
			"type": "function"
		},
		{
			"inputs": [],
			"name": "kslp",
			"outputs": [
				{
					"internalType": "address",
					"name": "",
					"type": "address"
				}
			],
			"stateMutability": "view",
			"type": "function"
		},
		{
			"inputs": [
				{
					"internalType": "address",
					"name": "tokenA",
					"type": "address"
				},
				{
					"internalType": "address",
					"name": "tokenB",
					"type": "address"
				},
				{
					"internalType": "uint256",
					"name": "amount",
					"type": "uint256"
				}
			],
			"name": "kspSwapKct",
			"outputs": [
				{
					"internalType": "uint256",
					"name": "",
					"type": "uint256"
				}
			],
			"stateMutability": "nonpayable",
			"type": "function"
		},
		{
			"inputs": [
				{
					"internalType": "address",
					"name": "tokenB",
					"type": "address"
				},
				{
					"internalType": "uint256",
					"name": "amount",
					"type": "uint256"
				}
			],
			"name": "kspSwapKlay",
			"outputs": [
				{
					"internalType": "uint256",
					"name": "",
					"type": "uint256"
				}
			],
			"stateMutability": "payable",
			"type": "function"
		},
		{
			"inputs": [
				{
					"components": [
						{
							"internalType": "address",
							"name": "_from",
							"type": "address"
						},
						{
							"internalType": "address",
							"name": "_to",
							"type": "address"
						},
						{
							"internalType": "uint256",
							"name": "_kspAmount",
							"type": "uint256"
						},
						{
							"internalType": "uint256",
							"name": "_defAmount",
							"type": "uint256"
						},
						{
							"internalType": "address",
							"name": "_kspLP",
							"type": "address"
						}
					],
					"internalType": "struct NaviSwap.Swap[]",
					"name": "_path",
					"type": "tuple[]"
				}
			],
			"name": "main",
			"outputs": [],
			"stateMutability": "payable",
			"type": "function"
		},
		{
			"inputs": [],
			"name": "owner",
			"outputs": [
				{
					"internalType": "address payable",
					"name": "",
					"type": "address"
				}
			],
			"stateMutability": "view",
			"type": "function"
		},
		{
			"inputs": [
				{
					"internalType": "address",
					"name": "tokenA",
					"type": "address"
				},
				{
					"internalType": "address",
					"name": "tokenB",
					"type": "address"
				},
				{
					"internalType": "uint256",
					"name": "amountA",
					"type": "uint256"
				}
			],
			"name": "swapDefinix",
			"outputs": [
				{
					"internalType": "uint256",
					"name": "",
					"type": "uint256"
				}
			],
			"stateMutability": "payable",
			"type": "function"
		},
		{
			"inputs": [
				{
					"internalType": "address",
					"name": "tokenA",
					"type": "address"
				},
				{
					"internalType": "address",
					"name": "tokenB",
					"type": "address"
				},
				{
					"internalType": "uint256",
					"name": "amountA",
					"type": "uint256"
				},
				{
					"internalType": "address",
					"name": "lpAddress",
					"type": "address"
				}
			],
			"name": "swapKlayswap",
			"outputs": [
				{
					"internalType": "uint256",
					"name": "amountB",
					"type": "uint256"
				}
			],
			"stateMutability": "payable",
			"type": "function"
		},
		{
			"stateMutability": "payable",
			"type": "receive"
		}
	]
}